{
  "_format": "hh-sol-artifact-1",
  "contractName": "HighlightMarket",
  "sourceName": "contracts/HighlightMarket.sol",
  "abi": [
    {
      "inputs": [
        {
          "internalType": "uint256",
          "name": "_feePercent",
          "type": "uint256"
        }
      ],
      "stateMutability": "nonpayable",
      "type": "constructor"
    },
    {
      "anonymous": false,
      "inputs": [
        {
          "indexed": false,
          "internalType": "uint256",
          "name": "highlight_id",
          "type": "uint256"
        },
        {
          "indexed": true,
          "internalType": "address",
          "name": "nft",
          "type": "address"
        },
        {
          "indexed": false,
          "internalType": "uint256",
          "name": "tokenId",
          "type": "uint256"
        },
        {
          "indexed": false,
          "internalType": "uint256",
          "name": "price",
          "type": "uint256"
        },
        {
          "indexed": true,
          "internalType": "address",
          "name": "seller",
          "type": "address"
        },
        {
          "indexed": true,
          "internalType": "address",
          "name": "buyer",
          "type": "address"
        },
        {
          "indexed": false,
          "internalType": "uint256",
          "name": "left_sold",
          "type": "uint256"
        }
      ],
      "name": "Bought",
      "type": "event"
    },
    {
      "anonymous": false,
      "inputs": [
        {
          "indexed": false,
          "internalType": "uint256",
          "name": "highlight_id",
          "type": "uint256"
        },
        {
          "indexed": true,
          "internalType": "address",
          "name": "nft",
          "type": "address"
        },
        {
          "indexed": false,
          "internalType": "uint256",
          "name": "tokenId",
          "type": "uint256"
        },
        {
          "indexed": false,
          "internalType": "uint256",
          "name": "price",
          "type": "uint256"
        },
        {
          "indexed": true,
          "internalType": "address",
          "name": "seller",
          "type": "address"
        },
        {
          "indexed": false,
          "internalType": "uint256",
          "name": "most_sold_num",
          "type": "uint256"
        },
        {
          "indexed": false,
          "internalType": "string",
          "name": "class",
          "type": "string"
        },
        {
          "indexed": false,
          "internalType": "string",
          "name": "map",
          "type": "string"
        },
        {
          "indexed": false,
          "internalType": "string",
          "name": "demo_url",
          "type": "string"
        },
        {
          "indexed": false,
          "internalType": "uint256",
          "name": "round_num",
          "type": "uint256"
        },
        {
          "indexed": false,
          "internalType": "string",
          "name": "player_num",
          "type": "string"
        }
      ],
      "name": "HighlightCreated",
      "type": "event"
    },
    {
      "inputs": [
        {
          "internalType": "string",
          "name": "",
          "type": "string"
        }
      ],
      "name": "appear_or_not",
      "outputs": [
        {
          "internalType": "bool",
          "name": "",
          "type": "bool"
        }
      ],
      "stateMutability": "view",
      "type": "function"
    },
    {
      "inputs": [
        {
          "internalType": "string",
          "name": "",
          "type": "string"
        }
      ],
      "name": "appear_or_not_all",
      "outputs": [
        {
          "internalType": "bool",
          "name": "",
          "type": "bool"
        }
      ],
      "stateMutability": "view",
      "type": "function"
    },
    {
      "inputs": [
        {
          "internalType": "uint256",
          "name": "",
          "type": "uint256"
        },
        {
          "internalType": "address",
          "name": "",
          "type": "address"
        }
      ],
      "name": "buyerpriceall",
      "outputs": [
        {
          "internalType": "uint256",
          "name": "",
          "type": "uint256"
        }
      ],
      "stateMutability": "view",
      "type": "function"
    },
    {
      "inputs": [
        {
          "internalType": "uint256",
          "name": "",
          "type": "uint256"
        },
        {
          "internalType": "address",
          "name": "",
          "type": "address"
        }
      ],
      "name": "buyersall",
      "outputs": [
        {
          "internalType": "bool",
          "name": "",
          "type": "bool"
        }
      ],
      "stateMutability": "view",
      "type": "function"
    },
    {
      "inputs": [
        {
          "internalType": "uint256",
          "name": "",
          "type": "uint256"
        }
      ],
      "name": "buyerstorage",
      "outputs": [
        {
          "internalType": "address",
          "name": "",
          "type": "address"
        }
      ],
      "stateMutability": "view",
      "type": "function"
    },
    {
      "inputs": [
        {
          "internalType": "uint256",
          "name": "",
          "type": "uint256"
        },
        {
          "internalType": "address",
          "name": "",
          "type": "address"
        }
      ],
      "name": "buyertotalprice",
      "outputs": [
        {
          "internalType": "uint256",
          "name": "",
          "type": "uint256"
        }
      ],
      "stateMutability": "view",
      "type": "function"
    },
    {
      "inputs": [
        {
          "internalType": "uint256",
          "name": "_highlight_id",
          "type": "uint256"
        }
      ],
      "name": "buyhighlight",
      "outputs": [],
      "stateMutability": "payable",
      "type": "function"
    },
    {
      "inputs": [
        {
          "internalType": "address",
          "name": "",
          "type": "address"
        }
      ],
      "name": "earnmoney",
      "outputs": [
        {
          "internalType": "uint256",
          "name": "",
          "type": "uint256"
        }
      ],
      "stateMutability": "view",
      "type": "function"
    },
    {
      "inputs": [],
      "name": "feeAccount",
      "outputs": [
        {
          "internalType": "address payable",
          "name": "",
          "type": "address"
        }
      ],
      "stateMutability": "view",
      "type": "function"
    },
    {
      "inputs": [],
      "name": "feePercent",
      "outputs": [
        {
          "internalType": "uint256",
          "name": "",
          "type": "uint256"
        }
      ],
      "stateMutability": "view",
      "type": "function"
    },
    {
      "inputs": [
        {
          "internalType": "uint256",
          "name": "_highlight_id",
          "type": "uint256"
        }
      ],
      "name": "gettotalprice",
      "outputs": [
        {
          "internalType": "uint256",
          "name": "",
          "type": "uint256"
        }
      ],
      "stateMutability": "view",
      "type": "function"
    },
    {
      "inputs": [],
      "name": "itemCount",
      "outputs": [
        {
          "internalType": "uint256",
          "name": "",
          "type": "uint256"
        }
      ],
      "stateMutability": "view",
      "type": "function"
    },
    {
      "inputs": [
        {
          "internalType": "uint256",
          "name": "",
          "type": "uint256"
        }
      ],
      "name": "items",
      "outputs": [
        {
          "internalType": "uint256",
          "name": "highlight_id",
          "type": "uint256"
        },
        {
          "internalType": "contract IERC721",
          "name": "nft",
          "type": "address"
        },
        {
          "internalType": "uint256",
          "name": "token_id",
          "type": "uint256"
        },
        {
          "internalType": "uint256",
          "name": "price",
          "type": "uint256"
        },
        {
          "internalType": "address payable",
          "name": "seller",
          "type": "address"
        },
        {
          "internalType": "bool",
          "name": "sold",
          "type": "bool"
        },
        {
          "internalType": "uint256",
          "name": "most_sold",
          "type": "uint256"
        },
        {
          "internalType": "enum HighlightMarket.classification",
          "name": "class",
          "type": "uint8"
        },
        {
          "internalType": "enum HighlightMarket.maps",
          "name": "csgo_map",
          "type": "uint8"
        },
        {
          "internalType": "string",
          "name": "demo_url",
          "type": "string"
        },
        {
          "internalType": "uint256",
          "name": "round_num",
          "type": "uint256"
        },
        {
          "internalType": "enum HighlightMarket.player",
          "name": "player_num",
          "type": "uint8"
        }
      ],
      "stateMutability": "view",
      "type": "function"
    },
    {
      "inputs": [
        {
          "internalType": "string",
          "name": "",
          "type": "string"
        }
      ],
      "name": "left_sells",
      "outputs": [
        {
          "internalType": "uint256",
          "name": "",
          "type": "uint256"
        }
      ],
      "stateMutability": "view",
      "type": "function"
    },
    {
      "inputs": [
        {
          "internalType": "contract IERC721",
          "name": "_nft",
          "type": "address"
        },
        {
          "internalType": "uint256",
          "name": "_tokenId",
          "type": "uint256"
        },
        {
          "internalType": "uint256",
          "name": "_price",
          "type": "uint256"
        },
        {
          "internalType": "uint256",
          "name": "_most_sold_num",
          "type": "uint256"
        },
        {
          "internalType": "enum HighlightMarket.classification",
          "name": "_class",
          "type": "uint8"
        },
        {
          "internalType": "enum HighlightMarket.maps",
          "name": "_csgo_map",
          "type": "uint8"
        },
        {
          "internalType": "string",
          "name": "_demo_url",
          "type": "string"
        },
        {
          "internalType": "uint256",
          "name": "_round_num",
          "type": "uint256"
        },
        {
          "internalType": "enum HighlightMarket.player",
          "name": "_player_num",
          "type": "uint8"
        }
      ],
      "name": "makehighlight",
      "outputs": [],
      "stateMutability": "nonpayable",
      "type": "function"
    },
    {
      "inputs": [
        {
          "internalType": "uint256",
          "name": "",
          "type": "uint256"
        }
      ],
      "name": "originalmostsold",
      "outputs": [
        {
          "internalType": "uint256",
          "name": "",
          "type": "uint256"
        }
      ],
      "stateMutability": "view",
      "type": "function"
    },
    {
      "inputs": [
        {
          "internalType": "string",
          "name": "",
          "type": "string"
        }
      ],
      "name": "owner",
      "outputs": [
        {
          "internalType": "address",
          "name": "",
          "type": "address"
        }
      ],
      "stateMutability": "view",
      "type": "function"
    },
    {
      "inputs": [
        {
          "internalType": "contract IERC721",
          "name": "_nft",
          "type": "address"
        },
        {
          "internalType": "uint256",
          "name": "_tokenId",
          "type": "uint256"
        },
        {
          "internalType": "uint256",
          "name": "_price",
          "type": "uint256"
        },
        {
          "internalType": "enum HighlightMarket.classification",
          "name": "_class",
          "type": "uint8"
        },
        {
          "internalType": "enum HighlightMarket.maps",
          "name": "_csgo_map",
          "type": "uint8"
        },
        {
          "internalType": "string",
          "name": "_demo_url",
          "type": "string"
        },
        {
          "internalType": "uint256",
          "name": "_round_num",
          "type": "uint256"
        },
        {
          "internalType": "enum HighlightMarket.player",
          "name": "_player_num",
          "type": "uint8"
        }
      ],
      "name": "resellhighlight",
      "outputs": [],
      "stateMutability": "nonpayable",
      "type": "function"
    },
    {
      "inputs": [
        {
          "internalType": "uint256",
          "name": "_highlight_id",
          "type": "uint256"
        },
        {
          "internalType": "uint256",
          "name": "_price",
          "type": "uint256"
        }
      ],
      "name": "sellboughts",
      "outputs": [],
      "stateMutability": "nonpayable",
      "type": "function"
    },
    {
      "inputs": [
        {
          "internalType": "uint256",
          "name": "",
          "type": "uint256"
        },
        {
          "internalType": "address",
          "name": "",
          "type": "address"
        }
      ],
      "name": "sellerall",
      "outputs": [
        {
          "internalType": "bool",
          "name": "",
          "type": "bool"
        }
      ],
      "stateMutability": "view",
      "type": "function"
    },
    {
      "inputs": [
        {
          "internalType": "uint256",
          "name": "",
          "type": "uint256"
        },
        {
          "internalType": "address",
          "name": "",
          "type": "address"
        }
      ],
      "name": "sellerpriceall",
      "outputs": [
        {
          "internalType": "uint256",
          "name": "",
          "type": "uint256"
        }
      ],
      "stateMutability": "view",
      "type": "function"
    },
    {
      "inputs": [
        {
          "internalType": "uint256",
          "name": "",
          "type": "uint256"
        },
        {
          "internalType": "address",
          "name": "",
          "type": "address"
        }
      ],
      "name": "sellertotalprice",
      "outputs": [
        {
          "internalType": "uint256",
          "name": "",
          "type": "uint256"
        }
      ],
      "stateMutability": "view",
      "type": "function"
    },
    {
      "inputs": [
        {
          "internalType": "string",
          "name": "",
          "type": "string"
        }
      ],
      "name": "sold_or_not",
      "outputs": [
        {
          "internalType": "bool",
          "name": "",
          "type": "bool"
        }
      ],
      "stateMutability": "view",
      "type": "function"
    },
    {
      "inputs": [
        {
          "internalType": "address",
          "name": "",
          "type": "address"
        }
      ],
      "name": "spentmoney",
      "outputs": [
        {
          "internalType": "uint256",
          "name": "",
          "type": "uint256"
        }
      ],
      "stateMutability": "view",
      "type": "function"
    },
    {
      "inputs": [
        {
          "internalType": "uint256",
          "name": "_highlight_id",
          "type": "uint256"
        }
      ],
      "name": "withdraw",
      "outputs": [],
      "stateMutability": "nonpayable",
      "type": "function"
    },
    {
      "inputs": [
        {
          "internalType": "uint256",
          "name": "",
          "type": "uint256"
        }
      ],
      "name": "withdrawornot",
      "outputs": [
        {
          "internalType": "bool",
          "name": "",
          "type": "bool"
        }
      ],
      "stateMutability": "view",
      "type": "function"
    }
  ],
  "bytecode": "0x60c06040523480156200001157600080fd5b50604051620060a6380380620060a683398181016040528101906200003791906200009c565b60016000819055503373ffffffffffffffffffffffffffffffffffffffff1660808173ffffffffffffffffffffffffffffffffffffffff1660601b815250508060a0818152505050620000ec565b6000815190506200009681620000d2565b92915050565b600060208284031215620000af57600080fd5b6000620000bf8482850162000085565b91505092915050565b6000819050919050565b620000dd81620000c8565b8114620000e957600080fd5b50565b60805160601c60a051615f836200012360003960008181610d690152611c73015260008181611c1b01526129880152615f836000f3fe6080604052600436106101815760003560e01c806386da2a57116100d1578063bfb231d21161008a578063df55b41a11610064578063df55b41a14610628578063e92b925c14610665578063ee640cce146106a2578063ff777e17146106df57610181565b8063bfb231d214610587578063ccba9d64146105cf578063d94f49d8146105eb57610181565b806386da2a571461042d5780638f51ea2e1461046a5780639939e8c3146104935780639e159a22146104d0578063a88f216c1461050d578063a8e416471461054a57610181565b80634350d1381161013e5780637cf5c723116101185780637cf5c7231461034b5780637fd6f15c146103885780638013809e146103b35780638013aaa4146103f057610181565b80634350d138146102cc57806365e17c9d146102f55780636bfb0d011461032057610181565b806303be49af146101865780630eddca19146101af578063133fbd5c146101ec578063223c499c1461022957806323407c15146102665780632e1a7d4d146102a3575b600080fd5b34801561019257600080fd5b506101ad60048036038101906101a89190614cb3565b61071c565b005b3480156101bb57600080fd5b506101d660048036038101906101d19190614a3c565b610d06565b6040516101e39190615402565b60405180910390f35b3480156101f857600080fd5b50610213600480360381019061020e9190614c77565b610d1e565b6040516102209190615402565b60405180910390f35b34801561023557600080fd5b50610250600480360381019061024b9190614c4e565b610d43565b60405161025d91906151c7565b60405180910390f35b34801561027257600080fd5b5061028d60048036038101906102889190614c4e565b610d63565b60405161029a9190615402565b60405180910390f35b3480156102af57600080fd5b506102ca60048036038101906102c59190614c4e565b610dc6565b005b3480156102d857600080fd5b506102f360048036038101906102ee9190614b2f565b61140e565b005b34801561030157600080fd5b5061030a611c19565b6040516103179190615175565b60405180910390f35b34801561032c57600080fd5b50610335611c3d565b6040516103429190615402565b60405180910390f35b34801561035757600080fd5b50610372600480360381019061036d9190614c0d565b611c43565b60405161037f9190615402565b60405180910390f35b34801561039457600080fd5b5061039d611c71565b6040516103aa9190615402565b60405180910390f35b3480156103bf57600080fd5b506103da60048036038101906103d59190614c77565b611c95565b6040516103e79190615402565b60405180910390f35b3480156103fc57600080fd5b5061041760048036038101906104129190614c77565b611cba565b60405161042491906151c7565b60405180910390f35b34801561043957600080fd5b50610454600480360381019061044f9190614c0d565b611ce9565b60405161046191906151c7565b60405180910390f35b34801561047657600080fd5b50610491600480360381019061048c9190614a65565b611d1f565b005b34801561049f57600080fd5b506104ba60048036038101906104b59190614c77565b612579565b6040516104c79190615402565b60405180910390f35b3480156104dc57600080fd5b506104f760048036038101906104f29190614c0d565b61259e565b60405161050491906151c7565b60405180910390f35b34801561051957600080fd5b50610534600480360381019061052f9190614c77565b6125d4565b6040516105419190615402565b60405180910390f35b34801561055657600080fd5b50610571600480360381019061056c9190614c4e565b6125f9565b60405161057e919061515a565b60405180910390f35b34801561059357600080fd5b506105ae60048036038101906105a99190614c4e565b61262c565b6040516105c69c9b9a9998979695949392919061541d565b60405180910390f35b6105e960048036038101906105e49190614c4e565b612788565b005b3480156105f757600080fd5b50610612600480360381019061060d9190614c77565b6130c1565b60405161061f91906151c7565b60405180910390f35b34801561063457600080fd5b5061064f600480360381019061064a9190614c0d565b6130f0565b60405161065c919061515a565b60405180910390f35b34801561067157600080fd5b5061068c60048036038101906106879190614c4e565b613139565b6040516106999190615402565b60405180910390f35b3480156106ae57600080fd5b506106c960048036038101906106c49190614c0d565b613151565b6040516106d691906151c7565b60405180910390f35b3480156106eb57600080fd5b5061070660048036038101906107019190614a3c565b613187565b6040516107139190615402565b60405180910390f35b60026000541415610762576040517f08c379a000000000000000000000000000000000000000000000000000000000815260040161075990615362565b60405180910390fd5b6002600081905550600082116107ad576040517f08c379a00000000000000000000000000000000000000000000000000000000081526004016107a490615342565b60405180910390fd5b6013548211156107f2576040517f08c379a00000000000000000000000000000000000000000000000000000000081526004016107e990615342565b60405180910390fd5b3373ffffffffffffffffffffffffffffffffffffffff166006600084815260200190815260200160002060009054906101000a900473ffffffffffffffffffffffffffffffffffffffff1673ffffffffffffffffffffffffffffffffffffffff1614610893576040517f08c379a000000000000000000000000000000000000000000000000000000000815260040161088a906151e2565b60405180910390fd5b600081116108d6576040517f08c379a00000000000000000000000000000000000000000000000000000000081526004016108cd906153a2565b60405180910390fd5b6000600960008481526020019081526020016000209050338160040160006101000a81548173ffffffffffffffffffffffffffffffffffffffff021916908373ffffffffffffffffffffffffffffffffffffffff16021790555060008160040160146101000a81548160ff0219169083151502179055508181600301819055508060010160009054906101000a900473ffffffffffffffffffffffffffffffffffffffff1673ffffffffffffffffffffffffffffffffffffffff166323b872dd333084600201546040518463ffffffff1660e01b81526004016109bb93929190615190565b600060405180830381600087803b1580156109d557600080fd5b505af11580156109e9573d6000803e3d6000fd5b505050508060096000858152602001908152602001600020600082015481600001556001820160009054906101000a900473ffffffffffffffffffffffffffffffffffffffff168160010160006101000a81548173ffffffffffffffffffffffffffffffffffffffff021916908373ffffffffffffffffffffffffffffffffffffffff16021790555060028201548160020155600382015481600301556004820160009054906101000a900473ffffffffffffffffffffffffffffffffffffffff168160040160006101000a81548173ffffffffffffffffffffffffffffffffffffffff021916908373ffffffffffffffffffffffffffffffffffffffff1602179055506004820160149054906101000a900460ff168160040160146101000a81548160ff021916908315150217905550600582015481600501556006820160009054906101000a900460ff168160060160006101000a81548160ff02191690836007811115610b82577f4e487b7100000000000000000000000000000000000000000000000000000000600052602160045260246000fd5b02179055506006820160019054906101000a900460ff168160060160016101000a81548160ff02191690836007811115610be5577f4e487b7100000000000000000000000000000000000000000000000000000000600052602160045260246000fd5b02179055506007820181600701908054610bfe906158b4565b610c09929190614826565b50600882015481600801556009820160009054906101000a900460ff168160090160006101000a81548160ff02191690836009811115610c72577f4e487b7100000000000000000000000000000000000000000000000000000000600052602160045260246000fd5b0217905550905050607b6006600085815260200190815260200160002060006101000a81548173ffffffffffffffffffffffffffffffffffffffff021916908373ffffffffffffffffffffffffffffffffffffffff1602179055506000600f600085815260200190815260200160002060006101000a81548160ff0219169083151502179055505060016000819055505050565b60116020528060005260406000206000915090505481565b600a602052816000526040600020602052806000526040600020600091509150505481565b600f6020528060005260406000206000915054906101000a900460ff1681565b600060647f00000000000000000000000000000000000000000000000000000000000000006064610d94919061565e565b6009600085815260200190815260200160002060030154610db591906156e5565b610dbf91906156b4565b9050919050565b60026000541415610e0c576040517f08c379a0000000000000000000000000000000000000000000000000000000008152600401610e0390615362565b60405180910390fd5b600260008190555060008111610e57576040517f08c379a0000000000000000000000000000000000000000000000000000000008152600401610e4e90615342565b60405180910390fd5b601354811115610e9c576040517f08c379a0000000000000000000000000000000000000000000000000000000008152600401610e9390615342565b60405180910390fd5b3373ffffffffffffffffffffffffffffffffffffffff166009600083815260200190815260200160002060040160009054906101000a900473ffffffffffffffffffffffffffffffffffffffff1673ffffffffffffffffffffffffffffffffffffffff1614610f0a57600080fd5b6000600960008381526020019081526020016000209050610ff18160060160009054906101000a900460ff168260060160019054906101000a900460ff16836007018054610f57906158b4565b80601f0160208091040260200160405190810160405280929190818152602001828054610f83906158b4565b8015610fd05780601f10610fa557610100808354040283529160200191610fd0565b820191906000526020600020905b815481529060010190602001808311610fb357829003601f168201915b505050505084600801548560090160009054906101000a900460ff1661319f565b601490805190602001906110069291906148b3565b50607b73ffffffffffffffffffffffffffffffffffffffff166006600084815260200190815260200160002060009054906101000a900473ffffffffffffffffffffffffffffffffffffffff1673ffffffffffffffffffffffffffffffffffffffff1614156110f157336006600084815260200190815260200160002060006101000a81548173ffffffffffffffffffffffffffffffffffffffff021916908373ffffffffffffffffffffffffffffffffffffffff16021790555060016009600084815260200190815260200160002060040160146101000a81548160ff0219169083151502179055505b600e60008381526020019081526020016000205460018260050154611116919061565e565b14156112d157600060016111de836007018054611132906158b4565b80601f016020809104026020016040519081016040528092919081815260200182805461115e906158b4565b80156111ab5780601f10611180576101008083540402835291602001916111ab565b820191906000526020600020905b81548152906001019060200180831161118e57829003601f168201915b505050505084600801548560090160009054906101000a900460ff168660060160019054906101000a900460ff166131f4565b6040516111eb91906150a3565b908152602001604051809103902060006101000a81548160ff0219169083151502179055506000600560146040516112239190615143565b908152602001604051809103902060006101000a81548160ff02191690831515021790555060006004601460405161125b9190615143565b908152602001604051809103902060006101000a81548173ffffffffffffffffffffffffffffffffffffffff021916908373ffffffffffffffffffffffffffffffffffffffff1602179055506000600260146040516112ba9190615143565b90815260200160405180910390208190555061133f565b600260146040516112e29190615143565b9081526020016040518091039020600081548092919061130190615917565b91905055506001600360146040516113199190615143565b908152602001604051809103902060006101000a81548160ff0219169083151502179055505b8060010160009054906101000a900473ffffffffffffffffffffffffffffffffffffffff1673ffffffffffffffffffffffffffffffffffffffff166323b872dd303384600201546040518463ffffffff1660e01b81526004016113a493929190615190565b600060405180830381600087803b1580156113be57600080fd5b505af11580156113d2573d6000803e3d6000fd5b505050506001600f600084815260200190815260200160002060006101000a81548160ff02191690831515021790555050600160008190555050565b60026000541415611454576040517f08c379a000000000000000000000000000000000000000000000000000000000815260040161144b90615362565b60405180910390fd5b60026000819055506000871161149f576040517f08c379a0000000000000000000000000000000000000000000000000000000008152600401611496906153a2565b60405180910390fd5b600082116114e2576040517f08c379a00000000000000000000000000000000000000000000000000000000081526004016114d9906152e2565b60405180910390fd5b601e821115611526576040517f08c379a000000000000000000000000000000000000000000000000000000000815260040161151d90615262565b60405180910390fd5b600186101561156a576040517f08c379a000000000000000000000000000000000000000000000000000000000815260040161156190615282565b60405180910390fd5b60001515600161157c858585896131f4565b60405161158991906150a3565b908152602001604051809103902060009054906101000a900460ff161515146115e7576040517f08c379a00000000000000000000000000000000000000000000000000000000081526004016115de906153e2565b60405180910390fd5b6001806115f6858585896131f4565b60405161160391906150a3565b908152602001604051809103902060006101000a81548160ff021916908315150217905550611635858585858561319f565b6014908051906020019061164a9291906148b3565b5060016005601460405161165e9190615143565b908152602001604051809103902060006101000a81548160ff02191690831515021790555033600460146040516116959190615143565b908152602001604051809103902060006101000a81548173ffffffffffffffffffffffffffffffffffffffff021916908373ffffffffffffffffffffffffffffffffffffffff1602179055506000600360146040516116f49190615143565b908152602001604051809103902060006101000a81548160ff02191690831515021790555060018614156117555760006012819055506012546002601460405161173e9190615143565b90815260200160405180910390208190555061178f565b600186611762919061573f565b6012819055506012546002601460405161177c9190615143565b9081526020016040518091039020819055505b600160135461179e919061565e565b6013819055508873ffffffffffffffffffffffffffffffffffffffff166323b872dd33308b6040518463ffffffff1660e01b81526004016117e193929190615190565b600060405180830381600087803b1580156117fb57600080fd5b505af115801561180f573d6000803e3d6000fd5b5050505060405180610180016040528060135481526020018a73ffffffffffffffffffffffffffffffffffffffff1681526020018981526020018881526020013373ffffffffffffffffffffffffffffffffffffffff16815260200160001515815260200160125481526020018660078111156118b5577f4e487b7100000000000000000000000000000000000000000000000000000000600052602160045260246000fd5b81526020018560078111156118f3577f4e487b7100000000000000000000000000000000000000000000000000000000600052602160045260246000fd5b815260200184815260200183815260200182600981111561193d577f4e487b7100000000000000000000000000000000000000000000000000000000600052602160045260246000fd5b8152506009600060135481526020019081526020016000206000820151816000015560208201518160010160006101000a81548173ffffffffffffffffffffffffffffffffffffffff021916908373ffffffffffffffffffffffffffffffffffffffff160217905550604082015181600201556060820151816003015560808201518160040160006101000a81548173ffffffffffffffffffffffffffffffffffffffff021916908373ffffffffffffffffffffffffffffffffffffffff16021790555060a08201518160040160146101000a81548160ff02191690831515021790555060c0820151816005015560e08201518160060160006101000a81548160ff02191690836007811115611a7c577f4e487b7100000000000000000000000000000000000000000000000000000000600052602160045260246000fd5b02179055506101008201518160060160016101000a81548160ff02191690836007811115611ad3577f4e487b7100000000000000000000000000000000000000000000000000000000600052602160045260246000fd5b0217905550610120820151816007019080519060200190611af59291906148b3565b5061014082015181600801556101608201518160090160006101000a81548160ff02191690836009811115611b53577f4e487b7100000000000000000000000000000000000000000000000000000000600052602160045260246000fd5b021790555090505085600e60006013548152602001908152602001600020819055503373ffffffffffffffffffffffffffffffffffffffff168973ffffffffffffffffffffffffffffffffffffffff167f9ac7c2ddfc25f44f155aee0ef920ab1b3b3da80cbe6eef2a600db9fdd506f1996013548b8b601254611bd58c61323e565b611bde8c613883565b8b8b611be98c613ec8565b604051611bfe99989796959493929190615523565b60405180910390a36001600081905550505050505050505050565b7f000000000000000000000000000000000000000000000000000000000000000081565b60135481565b6002818051602081018201805184825260208301602085012081835280955050505050506000915090505481565b7f000000000000000000000000000000000000000000000000000000000000000081565b600d602052816000526040600020602052806000526040600020600091509150505481565b60086020528160005260406000206020528060005260406000206000915091509054906101000a900460ff1681565b6005818051602081018201805184825260208301602085012081835280955050505050506000915054906101000a900460ff1681565b60026000541415611d65576040517f08c379a0000000000000000000000000000000000000000000000000000000008152600401611d5c90615362565b60405180910390fd5b600260008190555060008611611db0576040517f08c379a0000000000000000000000000000000000000000000000000000000008152600401611da7906153a2565b60405180910390fd5b60008211611df3576040517f08c379a0000000000000000000000000000000000000000000000000000000008152600401611dea906152e2565b60405180910390fd5b601e821115611e37576040517f08c379a0000000000000000000000000000000000000000000000000000000008152600401611e2e90615262565b60405180910390fd5b611e44858585858561319f565b60149080519060200190611e599291906148b3565b506001151560056014604051611e6f9190615143565b908152602001604051809103902060009054906101000a900460ff16151514611ecd576040517f08c379a0000000000000000000000000000000000000000000000000000000008152600401611ec490615202565b60405180910390fd5b3373ffffffffffffffffffffffffffffffffffffffff1660046014604051611ef59190615143565b908152602001604051809103902060009054906101000a900473ffffffffffffffffffffffffffffffffffffffff1673ffffffffffffffffffffffffffffffffffffffff1614611f7a576040517f08c379a0000000000000000000000000000000000000000000000000000000008152600401611f7190615302565b60405180910390fd5b6001151560036014604051611f8f9190615143565b908152602001604051809103902060009054906101000a900460ff16151514611fed576040517f08c379a0000000000000000000000000000000000000000000000000000000008152600401611fe490615222565b60405180910390fd5b60026014604051611ffe9190615143565b908152602001604051809103902054601281905550600060125411612058576040517f08c379a000000000000000000000000000000000000000000000000000000000815260040161204f90615322565b60405180910390fd5b600160125414156120965760006012819055506012546002601460405161207f9190615143565b9081526020016040518091039020819055506120d2565b60016012546120a5919061573f565b601281905550601254600260146040516120bf9190615143565b9081526020016040518091039020819055505b60016013546120e1919061565e565b6013819055508773ffffffffffffffffffffffffffffffffffffffff166323b872dd33308a6040518463ffffffff1660e01b815260040161212493929190615190565b600060405180830381600087803b15801561213e57600080fd5b505af1158015612152573d6000803e3d6000fd5b505050506000600360146040516121699190615143565b908152602001604051809103902060006101000a81548160ff02191690831515021790555060405180610180016040528060135481526020018973ffffffffffffffffffffffffffffffffffffffff1681526020018881526020018781526020013373ffffffffffffffffffffffffffffffffffffffff1681526020016000151581526020016012548152602001866007811115612230577f4e487b7100000000000000000000000000000000000000000000000000000000600052602160045260246000fd5b815260200185600781111561226e577f4e487b7100000000000000000000000000000000000000000000000000000000600052602160045260246000fd5b81526020018481526020018381526020018260098111156122b8577f4e487b7100000000000000000000000000000000000000000000000000000000600052602160045260246000fd5b8152506009600060135481526020019081526020016000206000820151816000015560208201518160010160006101000a81548173ffffffffffffffffffffffffffffffffffffffff021916908373ffffffffffffffffffffffffffffffffffffffff160217905550604082015181600201556060820151816003015560808201518160040160006101000a81548173ffffffffffffffffffffffffffffffffffffffff021916908373ffffffffffffffffffffffffffffffffffffffff16021790555060a08201518160040160146101000a81548160ff02191690831515021790555060c0820151816005015560e08201518160060160006101000a81548160ff021916908360078111156123f7577f4e487b7100000000000000000000000000000000000000000000000000000000600052602160045260246000fd5b02179055506101008201518160060160016101000a81548160ff0219169083600781111561244e577f4e487b7100000000000000000000000000000000000000000000000000000000600052602160045260246000fd5b02179055506101208201518160070190805190602001906124709291906148b3565b5061014082015181600801556101608201518160090160006101000a81548160ff021916908360098111156124ce577f4e487b7100000000000000000000000000000000000000000000000000000000600052602160045260246000fd5b02179055509050503373ffffffffffffffffffffffffffffffffffffffff168873ffffffffffffffffffffffffffffffffffffffff167f9ac7c2ddfc25f44f155aee0ef920ab1b3b3da80cbe6eef2a600db9fdd506f1996013548a8a6012546125368c61323e565b61253f8c613883565b8b8b61254a8c613ec8565b60405161255f99989796959493929190615523565b60405180910390a360016000819055505050505050505050565b600b602052816000526040600020602052806000526040600020600091509150505481565b6003818051602081018201805184825260208301602085012081835280955050505050506000915054906101000a900460ff1681565b600c602052816000526040600020602052806000526040600020600091509150505481565b60066020528060005260406000206000915054906101000a900473ffffffffffffffffffffffffffffffffffffffff1681565b60096020528060005260406000206000915090508060000154908060010160009054906101000a900473ffffffffffffffffffffffffffffffffffffffff16908060020154908060030154908060040160009054906101000a900473ffffffffffffffffffffffffffffffffffffffff16908060040160149054906101000a900460ff16908060050154908060060160009054906101000a900460ff16908060060160019054906101000a900460ff16908060070180546126ec906158b4565b80601f0160208091040260200160405190810160405280929190818152602001828054612718906158b4565b80156127655780601f1061273a57610100808354040283529160200191612765565b820191906000526020600020905b81548152906001019060200180831161274857829003601f168201915b5050505050908060080154908060090160009054906101000a900460ff1690508c565b600260005414156127ce576040517f08c379a00000000000000000000000000000000000000000000000000000000081526004016127c590615362565b60405180910390fd5b600260008190555060008111612819576040517f08c379a000000000000000000000000000000000000000000000000000000000815260040161281090615342565b60405180910390fd5b60135481111561285e576040517f08c379a000000000000000000000000000000000000000000000000000000000815260040161285590615342565b60405180910390fd5b600061286982610d63565b9050803410156128ae576040517f08c379a00000000000000000000000000000000000000000000000000000000081526004016128a590615382565b60405180910390fd5b60006009600084815260200190815260200160002090508060040160149054906101000a900460ff1615612917576040517f08c379a000000000000000000000000000000000000000000000000000000000815260040161290e906152a2565b60405180910390fd5b8060040160009054906101000a900473ffffffffffffffffffffffffffffffffffffffff1673ffffffffffffffffffffffffffffffffffffffff166108fc82600301549081150290604051600060405180830381858888f19350505050158015612985573d6000803e3d6000fd5b507f000000000000000000000000000000000000000000000000000000000000000073ffffffffffffffffffffffffffffffffffffffff166108fc8260030154846129d0919061573f565b9081150290604051600060405180830381858888f193505050501580156129fb573d6000803e3d6000fd5b5060018160040160146101000a81548160ff0219169083151502179055508060010160009054906101000a900473ffffffffffffffffffffffffffffffffffffffff1673ffffffffffffffffffffffffffffffffffffffff166323b872dd303384600201546040518463ffffffff1660e01b8152600401612a7e93929190615190565b600060405180830381600087803b158015612a9857600080fd5b505af1158015612aac573d6000803e3d6000fd5b50505050607b73ffffffffffffffffffffffffffffffffffffffff166006600085815260200190815260200160002060009054906101000a900473ffffffffffffffffffffffffffffffffffffffff1673ffffffffffffffffffffffffffffffffffffffff1614612c1e5760016003612beb8360060160009054906101000a900460ff168460060160019054906101000a900460ff16856007018054612b51906158b4565b80601f0160208091040260200160405190810160405280929190818152602001828054612b7d906158b4565b8015612bca5780601f10612b9f57610100808354040283529160200191612bca565b820191906000526020600020905b815481529060010190602001808311612bad57829003601f168201915b505050505086600801548760090160009054906101000a900460ff1661319f565b604051612bf891906150a3565b908152602001604051809103902060006101000a81548160ff0219169083151502179055505b336006600085815260200190815260200160002060006101000a81548173ffffffffffffffffffffffffffffffffffffffff021916908373ffffffffffffffffffffffffffffffffffffffff16021790555060016007600085815260200190815260200160002060003373ffffffffffffffffffffffffffffffffffffffff1673ffffffffffffffffffffffffffffffffffffffff16815260200190815260200160002060006101000a81548160ff02191690831515021790555060016008600085815260200190815260200160002060008360040160009054906101000a900473ffffffffffffffffffffffffffffffffffffffff1673ffffffffffffffffffffffffffffffffffffffff1673ffffffffffffffffffffffffffffffffffffffff16815260200190815260200160002060006101000a81548160ff0219169083151502179055508060030154600a600085815260200190815260200160002060003373ffffffffffffffffffffffffffffffffffffffff1673ffffffffffffffffffffffffffffffffffffffff168152602001908152602001600020819055508060030154600c600085815260200190815260200160002060008360040160009054906101000a900473ffffffffffffffffffffffffffffffffffffffff1673ffffffffffffffffffffffffffffffffffffffff1673ffffffffffffffffffffffffffffffffffffffff1681526020019081526020016000208190555081600d600085815260200190815260200160002060008360040160009054906101000a900473ffffffffffffffffffffffffffffffffffffffff1673ffffffffffffffffffffffffffffffffffffffff1673ffffffffffffffffffffffffffffffffffffffff1681526020019081526020016000208190555081600b600085815260200190815260200160002060003373ffffffffffffffffffffffffffffffffffffffff1673ffffffffffffffffffffffffffffffffffffffff1681526020019081526020016000208190555081601060003373ffffffffffffffffffffffffffffffffffffffff1673ffffffffffffffffffffffffffffffffffffffff1681526020019081526020016000206000828254612f59919061565e565b925050819055508060030154601160008360040160009054906101000a900473ffffffffffffffffffffffffffffffffffffffff1673ffffffffffffffffffffffffffffffffffffffff1673ffffffffffffffffffffffffffffffffffffffff1681526020019081526020016000206000828254612fd7919061565e565b925050819055503373ffffffffffffffffffffffffffffffffffffffff168160040160009054906101000a900473ffffffffffffffffffffffffffffffffffffffff1673ffffffffffffffffffffffffffffffffffffffff168260010160009054906101000a900473ffffffffffffffffffffffffffffffffffffffff1673ffffffffffffffffffffffffffffffffffffffff167fd78abc9e0d4dfe3f1e95dc2c5f8a6e6a3af57ab1174162e12eb01b661099ae00868560020154866003015487600501546040516130ac94939291906154de565b60405180910390a45050600160008190555050565b60076020528160005260406000206020528060005260406000206000915091509054906101000a900460ff1681565b6004818051602081018201805184825260208301602085012081835280955050505050506000915054906101000a900473ffffffffffffffffffffffffffffffffffffffff1681565b600e6020528060005260406000206000915090505481565b6001818051602081018201805184825260208301602085012081835280955050505050506000915054906101000a900460ff1681565b60106020528060005260406000206000915090505481565b60606131aa8661323e565b6131b386613883565b856131bd86614679565b6131c686613ec8565b6040516020016131da9594939291906150f8565b604051602081830303815290604052905095945050505050565b60606131ff82613883565b8561320986614679565b61321286613ec8565b60405160200161322594939291906150ba565b6040516020818303038152906040529050949350505050565b6060600782600781111561327b577f4e487b7100000000000000000000000000000000000000000000000000000000600052602160045260246000fd5b11156132bc576040517f08c379a00000000000000000000000000000000000000000000000000000000081526004016132b390615242565b60405180910390fd5b8160078111156132f5577f4e487b7100000000000000000000000000000000000000000000000000000000600052602160045260246000fd5b6000600781111561332f577f4e487b7100000000000000000000000000000000000000000000000000000000600052602160045260246000fd5b1415613372576040518060400160405280600b81526020017f547269706c65204b696c6c000000000000000000000000000000000000000000815250905061387e565b8160078111156133ab577f4e487b7100000000000000000000000000000000000000000000000000000000600052602160045260246000fd5b600160078111156133e5577f4e487b7100000000000000000000000000000000000000000000000000000000600052602160045260246000fd5b1415613428576040518060400160405280600b81526020017f517561647261204b696c6c000000000000000000000000000000000000000000815250905061387e565b816007811115613461577f4e487b7100000000000000000000000000000000000000000000000000000000600052602160045260246000fd5b6002600781111561349b577f4e487b7100000000000000000000000000000000000000000000000000000000600052602160045260246000fd5b14156134de576040518060400160405280600a81526020017f50656e7461204b696c6c00000000000000000000000000000000000000000000815250905061387e565b816007811115613517577f4e487b7100000000000000000000000000000000000000000000000000000000600052602160045260246000fd5b60036007811115613551577f4e487b7100000000000000000000000000000000000000000000000000000000600052602160045260246000fd5b1415613594576040518060400160405280600381526020017f3176310000000000000000000000000000000000000000000000000000000000815250905061387e565b8160078111156135cd577f4e487b7100000000000000000000000000000000000000000000000000000000600052602160045260246000fd5b60046007811115613607577f4e487b7100000000000000000000000000000000000000000000000000000000600052602160045260246000fd5b141561364a576040518060400160405280600381526020017f3176320000000000000000000000000000000000000000000000000000000000815250905061387e565b816007811115613683577f4e487b7100000000000000000000000000000000000000000000000000000000600052602160045260246000fd5b600560078111156136bd577f4e487b7100000000000000000000000000000000000000000000000000000000600052602160045260246000fd5b1415613700576040518060400160405280600381526020017f3176330000000000000000000000000000000000000000000000000000000000815250905061387e565b816007811115613739577f4e487b7100000000000000000000000000000000000000000000000000000000600052602160045260246000fd5b60066007811115613773577f4e487b7100000000000000000000000000000000000000000000000000000000600052602160045260246000fd5b14156137b6576040518060400160405280600381526020017f3176340000000000000000000000000000000000000000000000000000000000815250905061387e565b8160078111156137ef577f4e487b7100000000000000000000000000000000000000000000000000000000600052602160045260246000fd5b600780811115613828577f4e487b7100000000000000000000000000000000000000000000000000000000600052602160045260246000fd5b141561386b576040518060400160405280600381526020017f3176350000000000000000000000000000000000000000000000000000000000815250905061387e565b6040518060200160405280600081525090505b919050565b606060078260078111156138c0577f4e487b7100000000000000000000000000000000000000000000000000000000600052602160045260246000fd5b1115613901576040517f08c379a00000000000000000000000000000000000000000000000000000000081526004016138f8906153c2565b60405180910390fd5b81600781111561393a577f4e487b7100000000000000000000000000000000000000000000000000000000600052602160045260246000fd5b60006007811115613974577f4e487b7100000000000000000000000000000000000000000000000000000000600052602160045260246000fd5b14156139b7576040518060400160405280600581526020017f44757374320000000000000000000000000000000000000000000000000000008152509050613ec3565b8160078111156139f0577f4e487b7100000000000000000000000000000000000000000000000000000000600052602160045260246000fd5b60016007811115613a2a577f4e487b7100000000000000000000000000000000000000000000000000000000600052602160045260246000fd5b1415613a6d576040518060400160405280600681526020017f4d697261676500000000000000000000000000000000000000000000000000008152509050613ec3565b816007811115613aa6577f4e487b7100000000000000000000000000000000000000000000000000000000600052602160045260246000fd5b60026007811115613ae0577f4e487b7100000000000000000000000000000000000000000000000000000000600052602160045260246000fd5b1415613b23576040518060400160405280600781526020017f496e6665726e6f000000000000000000000000000000000000000000000000008152509050613ec3565b816007811115613b5c577f4e487b7100000000000000000000000000000000000000000000000000000000600052602160045260246000fd5b60036007811115613b96577f4e487b7100000000000000000000000000000000000000000000000000000000600052602160045260246000fd5b1415613bd9576040518060400160405280600481526020017f4e756b65000000000000000000000000000000000000000000000000000000008152509050613ec3565b816007811115613c12577f4e487b7100000000000000000000000000000000000000000000000000000000600052602160045260246000fd5b60046007811115613c4c577f4e487b7100000000000000000000000000000000000000000000000000000000600052602160045260246000fd5b1415613c8f576040518060400160405280600881526020017f4f766572706173730000000000000000000000000000000000000000000000008152509050613ec3565b816007811115613cc8577f4e487b7100000000000000000000000000000000000000000000000000000000600052602160045260246000fd5b60056007811115613d02577f4e487b7100000000000000000000000000000000000000000000000000000000600052602160045260246000fd5b1415613d45576040518060400160405280600781526020017f416e6369656e74000000000000000000000000000000000000000000000000008152509050613ec3565b816007811115613d7e577f4e487b7100000000000000000000000000000000000000000000000000000000600052602160045260246000fd5b60066007811115613db8577f4e487b7100000000000000000000000000000000000000000000000000000000600052602160045260246000fd5b1415613dfb576040518060400160405280600781526020017f5665727469676f000000000000000000000000000000000000000000000000008152509050613ec3565b816007811115613e34577f4e487b7100000000000000000000000000000000000000000000000000000000600052602160045260246000fd5b600780811115613e6d577f4e487b7100000000000000000000000000000000000000000000000000000000600052602160045260246000fd5b1415613eb0576040518060400160405280600581526020017f547261696e0000000000000000000000000000000000000000000000000000008152509050613ec3565b6040518060200160405280600081525090505b919050565b60606009826009811115613f05577f4e487b7100000000000000000000000000000000000000000000000000000000600052602160045260246000fd5b1115613f46576040517f08c379a0000000000000000000000000000000000000000000000000000000008152600401613f3d906152c2565b60405180910390fd5b816009811115613f7f577f4e487b7100000000000000000000000000000000000000000000000000000000600052602160045260246000fd5b60056009811115613fb9577f4e487b7100000000000000000000000000000000000000000000000000000000600052602160045260246000fd5b1415613ffc576040518060400160405280601381526020017f436f756e7465722d737472696b65204e6f2e31000000000000000000000000008152509050614674565b816009811115614035577f4e487b7100000000000000000000000000000000000000000000000000000000600052602160045260246000fd5b6006600981111561406f577f4e487b7100000000000000000000000000000000000000000000000000000000600052602160045260246000fd5b14156140b2576040518060400160405280601381526020017f436f756e7465722d737472696b65204e6f2e32000000000000000000000000008152509050614674565b8160098111156140eb577f4e487b7100000000000000000000000000000000000000000000000000000000600052602160045260246000fd5b60076009811115614125577f4e487b7100000000000000000000000000000000000000000000000000000000600052602160045260246000fd5b1415614168576040518060400160405280601381526020017f436f756e7465722d737472696b65204e6f2e33000000000000000000000000008152509050614674565b8160098111156141a1577f4e487b7100000000000000000000000000000000000000000000000000000000600052602160045260246000fd5b600860098111156141db577f4e487b7100000000000000000000000000000000000000000000000000000000600052602160045260246000fd5b141561421e576040518060400160405280601381526020017f436f756e7465722d737472696b65204e6f2e34000000000000000000000000008152509050614674565b816009811115614257577f4e487b7100000000000000000000000000000000000000000000000000000000600052602160045260246000fd5b600980811115614290577f4e487b7100000000000000000000000000000000000000000000000000000000600052602160045260246000fd5b14156142d3576040518060400160405280601381526020017f436f756e7465722d737472696b65204e6f2e35000000000000000000000000008152509050614674565b81600981111561430c577f4e487b7100000000000000000000000000000000000000000000000000000000600052602160045260246000fd5b60006009811115614346577f4e487b7100000000000000000000000000000000000000000000000000000000600052602160045260246000fd5b1415614389576040518060400160405280600e81526020017f546572726f72697374204e6f2e310000000000000000000000000000000000008152509050614674565b8160098111156143c2577f4e487b7100000000000000000000000000000000000000000000000000000000600052602160045260246000fd5b600160098111156143fc577f4e487b7100000000000000000000000000000000000000000000000000000000600052602160045260246000fd5b141561443f576040518060400160405280600e81526020017f546572726f72697374204e6f2e320000000000000000000000000000000000008152509050614674565b816009811115614478577f4e487b7100000000000000000000000000000000000000000000000000000000600052602160045260246000fd5b600260098111156144b2577f4e487b7100000000000000000000000000000000000000000000000000000000600052602160045260246000fd5b14156144f5576040518060400160405280600e81526020017f546572726f72697374204e6f2e330000000000000000000000000000000000008152509050614674565b81600981111561452e577f4e487b7100000000000000000000000000000000000000000000000000000000600052602160045260246000fd5b60036009811115614568577f4e487b7100000000000000000000000000000000000000000000000000000000600052602160045260246000fd5b14156145ab576040518060400160405280600e81526020017f546572726f72697374204e6f2e340000000000000000000000000000000000008152509050614674565b8160098111156145e4577f4e487b7100000000000000000000000000000000000000000000000000000000600052602160045260246000fd5b6004600981111561461e577f4e487b7100000000000000000000000000000000000000000000000000000000600052602160045260246000fd5b1415614661576040518060400160405280600e81526020017f546572726f72697374204e6f2e350000000000000000000000000000000000008152509050614674565b6040518060200160405280600081525090505b919050565b606060008214156146c1576040518060400160405280600181526020017f30000000000000000000000000000000000000000000000000000000000000008152509050614821565b600082905060005b600082146146f35780806146dc90615917565b915050600a826146ec91906156b4565b91506146c9565b60008167ffffffffffffffff811115614735577f4e487b7100000000000000000000000000000000000000000000000000000000600052604160045260246000fd5b6040519080825280601f01601f1916602001820160405280156147675781602001600182028036833780820191505090505b5090505b6000851461481a57600182614780919061573f565b9150600a8561478f9190615960565b603061479b919061565e565b60f81b8183815181106147d7577f4e487b7100000000000000000000000000000000000000000000000000000000600052603260045260246000fd5b60200101907effffffffffffffffffffffffffffffffffffffffffffffffffffffffffffff1916908160001a905350600a8561481391906156b4565b945061476b565b8093505050505b919050565b828054614832906158b4565b90600052602060002090601f01602090048101928261485457600085556148a2565b82601f1061486557805485556148a2565b828001600101855582156148a257600052602060002091601f016020900482015b828111156148a1578254825591600101919060010190614886565b5b5090506148af9190614939565b5090565b8280546148bf906158b4565b90600052602060002090601f0160209004810192826148e15760008555614928565b82601f106148fa57805160ff1916838001178555614928565b82800160010185558215614928579182015b8281111561492757825182559160200191906001019061490c565b5b5090506149359190614939565b5090565b5b8082111561495257600081600090555060010161493a565b5090565b6000614969614964846155f1565b6155cc565b90508281526020810184848401111561498157600080fd5b61498c848285615872565b509392505050565b6000813590506149a381615ed8565b92915050565b6000813590506149b881615eef565b92915050565b6000813590506149cd81615f06565b92915050565b6000813590506149e281615f16565b92915050565b6000813590506149f781615f26565b92915050565b600082601f830112614a0e57600080fd5b8135614a1e848260208601614956565b91505092915050565b600081359050614a3681615f36565b92915050565b600060208284031215614a4e57600080fd5b6000614a5c84828501614994565b91505092915050565b600080600080600080600080610100898b031215614a8257600080fd5b6000614a908b828c016149a9565b9850506020614aa18b828c01614a27565b9750506040614ab28b828c01614a27565b9650506060614ac38b828c016149be565b9550506080614ad48b828c016149d3565b94505060a089013567ffffffffffffffff811115614af157600080fd5b614afd8b828c016149fd565b93505060c0614b0e8b828c01614a27565b92505060e0614b1f8b828c016149e8565b9150509295985092959890939650565b60008060008060008060008060006101208a8c031215614b4e57600080fd5b6000614b5c8c828d016149a9565b9950506020614b6d8c828d01614a27565b9850506040614b7e8c828d01614a27565b9750506060614b8f8c828d01614a27565b9650506080614ba08c828d016149be565b95505060a0614bb18c828d016149d3565b94505060c08a013567ffffffffffffffff811115614bce57600080fd5b614bda8c828d016149fd565b93505060e0614beb8c828d01614a27565b925050610100614bfd8c828d016149e8565b9150509295985092959850929598565b600060208284031215614c1f57600080fd5b600082013567ffffffffffffffff811115614c3957600080fd5b614c45848285016149fd565b91505092915050565b600060208284031215614c6057600080fd5b6000614c6e84828501614a27565b91505092915050565b60008060408385031215614c8a57600080fd5b6000614c9885828601614a27565b9250506020614ca985828601614994565b9150509250929050565b60008060408385031215614cc657600080fd5b6000614cd485828601614a27565b9250506020614ce585828601614a27565b9150509250929050565b614cf881615785565b82525050565b614d0781615773565b82525050565b614d1681615797565b82525050565b614d2581615818565b82525050565b614d348161583c565b82525050565b614d438161584e565b82525050565b614d5281615860565b82525050565b6000614d6382615637565b614d6d8185615642565b9350614d7d818560208601615881565b614d8681615a7c565b840191505092915050565b6000614d9c82615637565b614da68185615653565b9350614db6818560208601615881565b80840191505092915050565b60008154614dcf816158b4565b614dd98186615653565b94506001821660008114614df45760018114614e0557614e38565b60ff19831686528186019350614e38565b614e0e85615622565b60005b83811015614e3057815481890152600182019150602081019050614e11565b838801955050505b50505092915050565b6000614e4e602883615642565b9150614e5982615a8d565b604082019050919050565b6000614e71602a83615642565b9150614e7c82615adc565b604082019050919050565b6000614e94602083615642565b9150614e9f82615b2b565b602082019050919050565b6000614eb7602683615642565b9150614ec282615b54565b604082019050919050565b6000614eda602883615642565b9150614ee582615ba3565b604082019050919050565b6000614efd602a83615642565b9150614f0882615bf2565b604082019050919050565b6000614f20601c83615642565b9150614f2b82615c41565b602082019050919050565b6000614f43602183615642565b9150614f4e82615c6a565b604082019050919050565b6000614f66602383615642565b9150614f7182615cb9565b604082019050919050565b6000614f89601e83615642565b9150614f9482615d08565b602082019050919050565b6000614fac601f83615642565b9150614fb782615d31565b602082019050919050565b6000614fcf601d83615642565b9150614fda82615d5a565b602082019050919050565b6000614ff2601f83615642565b9150614ffd82615d83565b602082019050919050565b6000615015602583615642565b915061502082615dac565b604082019050919050565b6000615038601c83615642565b915061504382615dfb565b602082019050919050565b600061505b601783615642565b915061506682615e24565b602082019050919050565b600061507e602683615642565b915061508982615e4d565b604082019050919050565b61509d8161580e565b82525050565b60006150af8284614d91565b915081905092915050565b60006150c68287614d91565b91506150d28286614d91565b91506150de8285614d91565b91506150ea8284614d91565b915081905095945050505050565b60006151048288614d91565b91506151108287614d91565b915061511c8286614d91565b91506151288285614d91565b91506151348284614d91565b91508190509695505050505050565b600061514f8284614dc2565b915081905092915050565b600060208201905061516f6000830184614cfe565b92915050565b600060208201905061518a6000830184614cef565b92915050565b60006060820190506151a56000830186614cfe565b6151b26020830185614cfe565b6151bf6040830184615094565b949350505050565b60006020820190506151dc6000830184614d0d565b92915050565b600060208201905081810360008301526151fb81614e41565b9050919050565b6000602082019050818103600083015261521b81614e64565b9050919050565b6000602082019050818103600083015261523b81614e87565b9050919050565b6000602082019050818103600083015261525b81614eaa565b9050919050565b6000602082019050818103600083015261527b81614ecd565b9050919050565b6000602082019050818103600083015261529b81614ef0565b9050919050565b600060208201905081810360008301526152bb81614f13565b9050919050565b600060208201905081810360008301526152db81614f36565b9050919050565b600060208201905081810360008301526152fb81614f59565b9050919050565b6000602082019050818103600083015261531b81614f7c565b9050919050565b6000602082019050818103600083015261533b81614f9f565b9050919050565b6000602082019050818103600083015261535b81614fc2565b9050919050565b6000602082019050818103600083015261537b81614fe5565b9050919050565b6000602082019050818103600083015261539b81615008565b9050919050565b600060208201905081810360008301526153bb8161502b565b9050919050565b600060208201905081810360008301526153db8161504e565b9050919050565b600060208201905081810360008301526153fb81615071565b9050919050565b60006020820190506154176000830184615094565b92915050565b600061018082019050615433600083018f615094565b615440602083018e614d1c565b61544d604083018d615094565b61545a606083018c615094565b615467608083018b614cef565b61547460a083018a614d0d565b61548160c0830189615094565b61548e60e0830188614d2b565b61549c610100830187614d3a565b8181036101208301526154af8186614d58565b90506154bf610140830185615094565b6154cd610160830184614d49565b9d9c50505050505050505050505050565b60006080820190506154f36000830187615094565b6155006020830186615094565b61550d6040830185615094565b61551a6060830184615094565b95945050505050565b600061012082019050615539600083018c615094565b615546602083018b615094565b615553604083018a615094565b6155606060830189615094565b81810360808301526155728188614d58565b905081810360a08301526155868187614d58565b905081810360c083015261559a8186614d58565b90506155a960e0830185615094565b8181036101008301526155bc8184614d58565b90509a9950505050505050505050565b60006155d66155e7565b90506155e282826158e6565b919050565b6000604051905090565b600067ffffffffffffffff82111561560c5761560b615a4d565b5b61561582615a7c565b9050602081019050919050565b60008190508160005260206000209050919050565b600081519050919050565b600082825260208201905092915050565b600081905092915050565b60006156698261580e565b91506156748361580e565b9250827fffffffffffffffffffffffffffffffffffffffffffffffffffffffffffffffff038211156156a9576156a8615991565b5b828201905092915050565b60006156bf8261580e565b91506156ca8361580e565b9250826156da576156d96159c0565b5b828204905092915050565b60006156f08261580e565b91506156fb8361580e565b9250817fffffffffffffffffffffffffffffffffffffffffffffffffffffffffffffffff048311821515161561573457615733615991565b5b828202905092915050565b600061574a8261580e565b91506157558361580e565b92508282101561576857615767615991565b5b828203905092915050565b600061577e826157ee565b9050919050565b6000615790826157ee565b9050919050565b60008115159050919050565b60006157ae82615773565b9050919050565b60008190506157c382615e9c565b919050565b60008190506157d682615eb0565b919050565b60008190506157e982615ec4565b919050565b600073ffffffffffffffffffffffffffffffffffffffff82169050919050565b6000819050919050565b60006158238261582a565b9050919050565b6000615835826157ee565b9050919050565b6000615847826157b5565b9050919050565b6000615859826157c8565b9050919050565b600061586b826157db565b9050919050565b82818337600083830152505050565b60005b8381101561589f578082015181840152602081019050615884565b838111156158ae576000848401525b50505050565b600060028204905060018216806158cc57607f821691505b602082108114156158e0576158df615a1e565b5b50919050565b6158ef82615a7c565b810181811067ffffffffffffffff8211171561590e5761590d615a4d565b5b80604052505050565b60006159228261580e565b91507fffffffffffffffffffffffffffffffffffffffffffffffffffffffffffffffff82141561595557615954615991565b5b600182019050919050565b600061596b8261580e565b91506159768361580e565b925082615986576159856159c0565b5b828206905092915050565b7f4e487b7100000000000000000000000000000000000000000000000000000000600052601160045260246000fd5b7f4e487b7100000000000000000000000000000000000000000000000000000000600052601260045260246000fd5b7f4e487b7100000000000000000000000000000000000000000000000000000000600052602160045260246000fd5b7f4e487b7100000000000000000000000000000000000000000000000000000000600052602260045260246000fd5b7f4e487b7100000000000000000000000000000000000000000000000000000000600052604160045260246000fd5b6000601f19601f8301169050919050565b7f54686520686967686c69676874206973206e6f74206f776e656420627920746860008201527f652073656e646572000000000000000000000000000000000000000000000000602082015250565b7f54686520686967686c6967687420686173206e6f74206265656e20637265617460008201527f6564206265666f72652e00000000000000000000000000000000000000000000602082015250565b7f54686520686967686c69676874206973206265696e6720736f6c64206e6f772e600082015250565b7f54686520636c617373206f6620686967686c6967687420646f6573206e6f742060008201527f65786973742e0000000000000000000000000000000000000000000000000000602082015250565b7f526f756e64206e756d626572206d757374206265206c657373206f722065717560008201527f616c20746f203330000000000000000000000000000000000000000000000000602082015250565b7f54686520686967686c696768742073686f756c6420626520736f6c642061742060008201527f6c65617374206f6e636500000000000000000000000000000000000000000000602082015250565b7f54686520686967686c6967687420686173206265656e20736f6c642e00000000600082015250565b7f54686520706c61796572206e756d62657220646f6573206e6f7420657869737460008201527f2e00000000000000000000000000000000000000000000000000000000000000602082015250565b7f526f756e64206e756d626572206d75737420626520677265617465722074686160008201527f6e20300000000000000000000000000000000000000000000000000000000000602082015250565b7f4974206973206e6f74206f776e6564206279207468652073656e6465722e0000600082015250565b7f54686520686967686c696768742063616e6e6f74206265207265736f6c642e00600082015250565b7f54686520686967686c6967687420646f6573206e6f742065786973742e000000600082015250565b7f5265656e7472616e637947756172643a207265656e7472616e742063616c6c00600082015250565b7f54686520627579657220646f6573206e6f74206861766520656e6f756768206d60008201527f6f6e65792e000000000000000000000000000000000000000000000000000000602082015250565b7f5072696365206d7573742062652067726561746572207468616e203000000000600082015250565b7f546865206d617020646f6573206e6f742065786973742e000000000000000000600082015250565b7f54686520686967686c6967687420686173206265656e2063726561746564206260008201527f65666f72652e0000000000000000000000000000000000000000000000000000602082015250565b60088110615ead57615eac6159ef565b5b50565b60088110615ec157615ec06159ef565b5b50565b600a8110615ed557615ed46159ef565b5b50565b615ee181615773565b8114615eec57600080fd5b50565b615ef8816157a3565b8114615f0357600080fd5b50565b60088110615f1357600080fd5b50565b60088110615f2357600080fd5b50565b600a8110615f3357600080fd5b50565b615f3f8161580e565b8114615f4a57600080fd5b5056fea26469706673582212205a05726d298c38582c5e3ae7b6c62365548aa826acfda9c19c1dc3dd30e23b4964736f6c63430008040033",
  "linkReferences": {},
  "deployedLinkReferences": {}
}