{
  "_format": "hh-sol-artifact-1",
  "contractName": "HighlightMarket",
  "sourceName": "contracts/HighlightMarket.sol",
  "abi": [
    {
      "inputs": [
        {
          "internalType": "uint256",
          "name": "_feePercent",
          "type": "uint256"
        }
      ],
      "stateMutability": "nonpayable",
      "type": "constructor"
    },
    {
      "anonymous": false,
      "inputs": [
        {
          "indexed": false,
          "internalType": "uint256",
          "name": "highlight_id",
          "type": "uint256"
        },
        {
          "indexed": true,
          "internalType": "address",
          "name": "nft",
          "type": "address"
        },
        {
          "indexed": false,
          "internalType": "uint256",
          "name": "tokenId",
          "type": "uint256"
        },
        {
          "indexed": false,
          "internalType": "uint256",
          "name": "price",
          "type": "uint256"
        },
        {
          "indexed": true,
          "internalType": "address",
          "name": "seller",
          "type": "address"
        },
        {
          "indexed": true,
          "internalType": "address",
          "name": "buyer",
          "type": "address"
        },
        {
          "indexed": false,
          "internalType": "uint256",
          "name": "left_sold",
          "type": "uint256"
        }
      ],
      "name": "Bought",
      "type": "event"
    },
    {
      "anonymous": false,
      "inputs": [
        {
          "indexed": false,
          "internalType": "uint256",
          "name": "highlight_id",
          "type": "uint256"
        },
        {
          "indexed": true,
          "internalType": "address",
          "name": "nft",
          "type": "address"
        },
        {
          "indexed": false,
          "internalType": "uint256",
          "name": "tokenId",
          "type": "uint256"
        },
        {
          "indexed": false,
          "internalType": "uint256",
          "name": "price",
          "type": "uint256"
        },
        {
          "indexed": true,
          "internalType": "address",
          "name": "seller",
          "type": "address"
        },
        {
          "indexed": false,
          "internalType": "uint256",
          "name": "most_sold_num",
          "type": "uint256"
        },
        {
          "indexed": false,
          "internalType": "string",
          "name": "class",
          "type": "string"
        },
        {
          "indexed": false,
          "internalType": "string",
          "name": "map",
          "type": "string"
        },
        {
          "indexed": false,
          "internalType": "string",
          "name": "demo_url",
          "type": "string"
        },
        {
          "indexed": false,
          "internalType": "uint256",
          "name": "round_num",
          "type": "uint256"
        },
        {
          "indexed": false,
          "internalType": "string",
          "name": "player_num",
          "type": "string"
        }
      ],
      "name": "HighlightCreated",
      "type": "event"
    },
    {
      "inputs": [
        {
          "internalType": "string",
          "name": "",
          "type": "string"
        }
      ],
      "name": "appear_or_not",
      "outputs": [
        {
          "internalType": "bool",
          "name": "",
          "type": "bool"
        }
      ],
      "stateMutability": "view",
      "type": "function"
    },
    {
      "inputs": [
        {
          "internalType": "string",
          "name": "",
          "type": "string"
        }
      ],
      "name": "appear_or_not_all",
      "outputs": [
        {
          "internalType": "bool",
          "name": "",
          "type": "bool"
        }
      ],
      "stateMutability": "view",
      "type": "function"
    },
    {
      "inputs": [
        {
          "internalType": "uint256",
          "name": "",
          "type": "uint256"
        },
        {
          "internalType": "address",
          "name": "",
          "type": "address"
        }
      ],
      "name": "buyerpriceall",
      "outputs": [
        {
          "internalType": "uint256",
          "name": "",
          "type": "uint256"
        }
      ],
      "stateMutability": "view",
      "type": "function"
    },
    {
      "inputs": [
        {
          "internalType": "uint256",
          "name": "",
          "type": "uint256"
        },
        {
          "internalType": "address",
          "name": "",
          "type": "address"
        }
      ],
      "name": "buyersall",
      "outputs": [
        {
          "internalType": "bool",
          "name": "",
          "type": "bool"
        }
      ],
      "stateMutability": "view",
      "type": "function"
    },
    {
      "inputs": [
        {
          "internalType": "uint256",
          "name": "",
          "type": "uint256"
        }
      ],
      "name": "buyerstorage",
      "outputs": [
        {
          "internalType": "address",
          "name": "",
          "type": "address"
        }
      ],
      "stateMutability": "view",
      "type": "function"
    },
    {
      "inputs": [
        {
          "internalType": "uint256",
          "name": "",
          "type": "uint256"
        },
        {
          "internalType": "address",
          "name": "",
          "type": "address"
        }
      ],
      "name": "buyertotalprice",
      "outputs": [
        {
          "internalType": "uint256",
          "name": "",
          "type": "uint256"
        }
      ],
      "stateMutability": "view",
      "type": "function"
    },
    {
      "inputs": [
        {
          "internalType": "uint256",
          "name": "_highlight_id",
          "type": "uint256"
        }
      ],
      "name": "buyhighlight",
      "outputs": [],
      "stateMutability": "payable",
      "type": "function"
    },
    {
      "inputs": [
        {
          "internalType": "address",
          "name": "",
          "type": "address"
        }
      ],
      "name": "earnmoney",
      "outputs": [
        {
          "internalType": "uint256",
          "name": "",
          "type": "uint256"
        }
      ],
      "stateMutability": "view",
      "type": "function"
    },
    {
      "inputs": [],
      "name": "feeAccount",
      "outputs": [
        {
          "internalType": "address payable",
          "name": "",
          "type": "address"
        }
      ],
      "stateMutability": "view",
      "type": "function"
    },
    {
      "inputs": [],
      "name": "feePercent",
      "outputs": [
        {
          "internalType": "uint256",
          "name": "",
          "type": "uint256"
        }
      ],
      "stateMutability": "view",
      "type": "function"
    },
    {
      "inputs": [
        {
          "internalType": "uint256",
          "name": "_highlight_id",
          "type": "uint256"
        }
      ],
      "name": "gettotalprice",
      "outputs": [
        {
          "internalType": "uint256",
          "name": "",
          "type": "uint256"
        }
      ],
      "stateMutability": "view",
      "type": "function"
    },
    {
      "inputs": [],
      "name": "itemCount",
      "outputs": [
        {
          "internalType": "uint256",
          "name": "",
          "type": "uint256"
        }
      ],
      "stateMutability": "view",
      "type": "function"
    },
    {
      "inputs": [
        {
          "internalType": "uint256",
          "name": "",
          "type": "uint256"
        }
      ],
      "name": "items",
      "outputs": [
        {
          "internalType": "uint256",
          "name": "highlight_id",
          "type": "uint256"
        },
        {
          "internalType": "contract IERC721",
          "name": "nft",
          "type": "address"
        },
        {
          "internalType": "uint256",
          "name": "token_id",
          "type": "uint256"
        },
        {
          "internalType": "uint256",
          "name": "price",
          "type": "uint256"
        },
        {
          "internalType": "address payable",
          "name": "seller",
          "type": "address"
        },
        {
          "internalType": "bool",
          "name": "sold",
          "type": "bool"
        },
        {
          "internalType": "uint256",
          "name": "most_sold",
          "type": "uint256"
        },
        {
          "internalType": "enum HighlightMarket.classification",
          "name": "class",
          "type": "uint8"
        },
        {
          "internalType": "enum HighlightMarket.maps",
          "name": "csgo_map",
          "type": "uint8"
        },
        {
          "internalType": "string",
          "name": "demo_url",
          "type": "string"
        },
        {
          "internalType": "uint256",
          "name": "round_num",
          "type": "uint256"
        },
        {
          "internalType": "enum HighlightMarket.player",
          "name": "player_num",
          "type": "uint8"
        }
      ],
      "stateMutability": "view",
      "type": "function"
    },
    {
      "inputs": [
        {
          "internalType": "string",
          "name": "",
          "type": "string"
        }
      ],
      "name": "left_sells",
      "outputs": [
        {
          "internalType": "uint256",
          "name": "",
          "type": "uint256"
        }
      ],
      "stateMutability": "view",
      "type": "function"
    },
    {
      "inputs": [
        {
          "internalType": "contract IERC721",
          "name": "_nft",
          "type": "address"
        },
        {
          "internalType": "uint256",
          "name": "_tokenId",
          "type": "uint256"
        },
        {
          "internalType": "uint256",
          "name": "_price",
          "type": "uint256"
        },
        {
          "internalType": "uint256",
          "name": "_most_sold_num",
          "type": "uint256"
        },
        {
          "internalType": "enum HighlightMarket.classification",
          "name": "_class",
          "type": "uint8"
        },
        {
          "internalType": "enum HighlightMarket.maps",
          "name": "_csgo_map",
          "type": "uint8"
        },
        {
          "internalType": "string",
          "name": "_demo_url",
          "type": "string"
        },
        {
          "internalType": "uint256",
          "name": "_round_num",
          "type": "uint256"
        },
        {
          "internalType": "enum HighlightMarket.player",
          "name": "_player_num",
          "type": "uint8"
        }
      ],
      "name": "makehighlight",
      "outputs": [],
      "stateMutability": "nonpayable",
      "type": "function"
    },
    {
      "inputs": [
        {
          "internalType": "uint256",
          "name": "",
          "type": "uint256"
        }
      ],
      "name": "originalmostsold",
      "outputs": [
        {
          "internalType": "uint256",
          "name": "",
          "type": "uint256"
        }
      ],
      "stateMutability": "view",
      "type": "function"
    },
    {
      "inputs": [
        {
          "internalType": "string",
          "name": "",
          "type": "string"
        }
      ],
      "name": "owner",
      "outputs": [
        {
          "internalType": "address",
          "name": "",
          "type": "address"
        }
      ],
      "stateMutability": "view",
      "type": "function"
    },
    {
      "inputs": [
        {
          "internalType": "contract IERC721",
          "name": "_nft",
          "type": "address"
        },
        {
          "internalType": "uint256",
          "name": "_tokenId",
          "type": "uint256"
        },
        {
          "internalType": "uint256",
          "name": "_price",
          "type": "uint256"
        },
        {
          "internalType": "enum HighlightMarket.classification",
          "name": "_class",
          "type": "uint8"
        },
        {
          "internalType": "enum HighlightMarket.maps",
          "name": "_csgo_map",
          "type": "uint8"
        },
        {
          "internalType": "string",
          "name": "_demo_url",
          "type": "string"
        },
        {
          "internalType": "uint256",
          "name": "_round_num",
          "type": "uint256"
        },
        {
          "internalType": "enum HighlightMarket.player",
          "name": "_player_num",
          "type": "uint8"
        }
      ],
      "name": "resellhighlight",
      "outputs": [],
      "stateMutability": "nonpayable",
      "type": "function"
    },
    {
      "inputs": [
        {
          "internalType": "uint256",
          "name": "_highlight_id",
          "type": "uint256"
        },
        {
          "internalType": "uint256",
          "name": "_price",
          "type": "uint256"
        }
      ],
      "name": "sellboughts",
      "outputs": [],
      "stateMutability": "nonpayable",
      "type": "function"
    },
    {
      "inputs": [
        {
          "internalType": "uint256",
          "name": "",
          "type": "uint256"
        },
        {
          "internalType": "address",
          "name": "",
          "type": "address"
        }
      ],
      "name": "sellerall",
      "outputs": [
        {
          "internalType": "bool",
          "name": "",
          "type": "bool"
        }
      ],
      "stateMutability": "view",
      "type": "function"
    },
    {
      "inputs": [
        {
          "internalType": "uint256",
          "name": "",
          "type": "uint256"
        },
        {
          "internalType": "address",
          "name": "",
          "type": "address"
        }
      ],
      "name": "sellerpriceall",
      "outputs": [
        {
          "internalType": "uint256",
          "name": "",
          "type": "uint256"
        }
      ],
      "stateMutability": "view",
      "type": "function"
    },
    {
      "inputs": [
        {
          "internalType": "uint256",
          "name": "",
          "type": "uint256"
        },
        {
          "internalType": "address",
          "name": "",
          "type": "address"
        }
      ],
      "name": "sellertotalprice",
      "outputs": [
        {
          "internalType": "uint256",
          "name": "",
          "type": "uint256"
        }
      ],
      "stateMutability": "view",
      "type": "function"
    },
    {
      "inputs": [
        {
          "internalType": "string",
          "name": "",
          "type": "string"
        }
      ],
      "name": "sold_or_not",
      "outputs": [
        {
          "internalType": "bool",
          "name": "",
          "type": "bool"
        }
      ],
      "stateMutability": "view",
      "type": "function"
    },
    {
      "inputs": [
        {
          "internalType": "address",
          "name": "",
          "type": "address"
        }
      ],
      "name": "spentmoney",
      "outputs": [
        {
          "internalType": "uint256",
          "name": "",
          "type": "uint256"
        }
      ],
      "stateMutability": "view",
      "type": "function"
    },
    {
      "inputs": [
        {
          "internalType": "uint256",
          "name": "_highlight_id",
          "type": "uint256"
        }
      ],
      "name": "withdraw",
      "outputs": [],
      "stateMutability": "nonpayable",
      "type": "function"
    },
    {
      "inputs": [
        {
          "internalType": "uint256",
          "name": "",
          "type": "uint256"
        }
      ],
      "name": "withdrawornot",
      "outputs": [
        {
          "internalType": "bool",
          "name": "",
          "type": "bool"
        }
      ],
      "stateMutability": "view",
      "type": "function"
    }
  ],
  "bytecode": "0x60c06040523480156200001157600080fd5b50604051620060da380380620060da83398181016040528101906200003791906200009c565b60016000819055503373ffffffffffffffffffffffffffffffffffffffff1660808173ffffffffffffffffffffffffffffffffffffffff1660601b815250508060a0818152505050620000ec565b6000815190506200009681620000d2565b92915050565b600060208284031215620000af57600080fd5b6000620000bf8482850162000085565b91505092915050565b6000819050919050565b620000dd81620000c8565b8114620000e957600080fd5b50565b60805160601c60a051615fb76200012360003960008181610d690152611ca7015260008181611c4f01526129bc0152615fb76000f3fe6080604052600436106101815760003560e01c806386da2a57116100d1578063bfb231d21161008a578063df55b41a11610064578063df55b41a14610628578063e92b925c14610665578063ee640cce146106a2578063ff777e17146106df57610181565b8063bfb231d214610587578063ccba9d64146105cf578063d94f49d8146105eb57610181565b806386da2a571461042d5780638f51ea2e1461046a5780639939e8c3146104935780639e159a22146104d0578063a88f216c1461050d578063a8e416471461054a57610181565b80634350d1381161013e5780637cf5c723116101185780637cf5c7231461034b5780637fd6f15c146103885780638013809e146103b35780638013aaa4146103f057610181565b80634350d138146102cc57806365e17c9d146102f55780636bfb0d011461032057610181565b806303be49af146101865780630eddca19146101af578063133fbd5c146101ec578063223c499c1461022957806323407c15146102665780632e1a7d4d146102a3575b600080fd5b34801561019257600080fd5b506101ad60048036038101906101a89190614ce7565b61071c565b005b3480156101bb57600080fd5b506101d660048036038101906101d19190614a70565b610d06565b6040516101e39190615436565b60405180910390f35b3480156101f857600080fd5b50610213600480360381019061020e9190614cab565b610d1e565b6040516102209190615436565b60405180910390f35b34801561023557600080fd5b50610250600480360381019061024b9190614c82565b610d43565b60405161025d91906151fb565b60405180910390f35b34801561027257600080fd5b5061028d60048036038101906102889190614c82565b610d63565b60405161029a9190615436565b60405180910390f35b3480156102af57600080fd5b506102ca60048036038101906102c59190614c82565b610dc6565b005b3480156102d857600080fd5b506102f360048036038101906102ee9190614b63565b611442565b005b34801561030157600080fd5b5061030a611c4d565b60405161031791906151a9565b60405180910390f35b34801561032c57600080fd5b50610335611c71565b6040516103429190615436565b60405180910390f35b34801561035757600080fd5b50610372600480360381019061036d9190614c41565b611c77565b60405161037f9190615436565b60405180910390f35b34801561039457600080fd5b5061039d611ca5565b6040516103aa9190615436565b60405180910390f35b3480156103bf57600080fd5b506103da60048036038101906103d59190614cab565b611cc9565b6040516103e79190615436565b60405180910390f35b3480156103fc57600080fd5b5061041760048036038101906104129190614cab565b611cee565b60405161042491906151fb565b60405180910390f35b34801561043957600080fd5b50610454600480360381019061044f9190614c41565b611d1d565b60405161046191906151fb565b60405180910390f35b34801561047657600080fd5b50610491600480360381019061048c9190614a99565b611d53565b005b34801561049f57600080fd5b506104ba60048036038101906104b59190614cab565b6125ad565b6040516104c79190615436565b60405180910390f35b3480156104dc57600080fd5b506104f760048036038101906104f29190614c41565b6125d2565b60405161050491906151fb565b60405180910390f35b34801561051957600080fd5b50610534600480360381019061052f9190614cab565b612608565b6040516105419190615436565b60405180910390f35b34801561055657600080fd5b50610571600480360381019061056c9190614c82565b61262d565b60405161057e919061518e565b60405180910390f35b34801561059357600080fd5b506105ae60048036038101906105a99190614c82565b612660565b6040516105c69c9b9a99989796959493929190615451565b60405180910390f35b6105e960048036038101906105e49190614c82565b6127bc565b005b3480156105f757600080fd5b50610612600480360381019061060d9190614cab565b6130f5565b60405161061f91906151fb565b60405180910390f35b34801561063457600080fd5b5061064f600480360381019061064a9190614c41565b613124565b60405161065c919061518e565b60405180910390f35b34801561067157600080fd5b5061068c60048036038101906106879190614c82565b61316d565b6040516106999190615436565b60405180910390f35b3480156106ae57600080fd5b506106c960048036038101906106c49190614c41565b613185565b6040516106d691906151fb565b60405180910390f35b3480156106eb57600080fd5b5061070660048036038101906107019190614a70565b6131bb565b6040516107139190615436565b60405180910390f35b60026000541415610762576040517f08c379a000000000000000000000000000000000000000000000000000000000815260040161075990615396565b60405180910390fd5b6002600081905550600082116107ad576040517f08c379a00000000000000000000000000000000000000000000000000000000081526004016107a490615376565b60405180910390fd5b6013548211156107f2576040517f08c379a00000000000000000000000000000000000000000000000000000000081526004016107e990615376565b60405180910390fd5b3373ffffffffffffffffffffffffffffffffffffffff166006600084815260200190815260200160002060009054906101000a900473ffffffffffffffffffffffffffffffffffffffff1673ffffffffffffffffffffffffffffffffffffffff1614610893576040517f08c379a000000000000000000000000000000000000000000000000000000000815260040161088a90615216565b60405180910390fd5b600081116108d6576040517f08c379a00000000000000000000000000000000000000000000000000000000081526004016108cd906153d6565b60405180910390fd5b6000600960008481526020019081526020016000209050338160040160006101000a81548173ffffffffffffffffffffffffffffffffffffffff021916908373ffffffffffffffffffffffffffffffffffffffff16021790555060008160040160146101000a81548160ff0219169083151502179055508181600301819055508060010160009054906101000a900473ffffffffffffffffffffffffffffffffffffffff1673ffffffffffffffffffffffffffffffffffffffff166323b872dd333084600201546040518463ffffffff1660e01b81526004016109bb939291906151c4565b600060405180830381600087803b1580156109d557600080fd5b505af11580156109e9573d6000803e3d6000fd5b505050508060096000858152602001908152602001600020600082015481600001556001820160009054906101000a900473ffffffffffffffffffffffffffffffffffffffff168160010160006101000a81548173ffffffffffffffffffffffffffffffffffffffff021916908373ffffffffffffffffffffffffffffffffffffffff16021790555060028201548160020155600382015481600301556004820160009054906101000a900473ffffffffffffffffffffffffffffffffffffffff168160040160006101000a81548173ffffffffffffffffffffffffffffffffffffffff021916908373ffffffffffffffffffffffffffffffffffffffff1602179055506004820160149054906101000a900460ff168160040160146101000a81548160ff021916908315150217905550600582015481600501556006820160009054906101000a900460ff168160060160006101000a81548160ff02191690836007811115610b82577f4e487b7100000000000000000000000000000000000000000000000000000000600052602160045260246000fd5b02179055506006820160019054906101000a900460ff168160060160016101000a81548160ff02191690836007811115610be5577f4e487b7100000000000000000000000000000000000000000000000000000000600052602160045260246000fd5b02179055506007820181600701908054610bfe906158e8565b610c0992919061485a565b50600882015481600801556009820160009054906101000a900460ff168160090160006101000a81548160ff02191690836009811115610c72577f4e487b7100000000000000000000000000000000000000000000000000000000600052602160045260246000fd5b0217905550905050607b6006600085815260200190815260200160002060006101000a81548173ffffffffffffffffffffffffffffffffffffffff021916908373ffffffffffffffffffffffffffffffffffffffff1602179055506000600f600085815260200190815260200160002060006101000a81548160ff0219169083151502179055505060016000819055505050565b60116020528060005260406000206000915090505481565b600a602052816000526040600020602052806000526040600020600091509150505481565b600f6020528060005260406000206000915054906101000a900460ff1681565b600060647f00000000000000000000000000000000000000000000000000000000000000006064610d949190615692565b6009600085815260200190815260200160002060030154610db59190615719565b610dbf91906156e8565b9050919050565b60026000541415610e0c576040517f08c379a0000000000000000000000000000000000000000000000000000000008152600401610e0390615396565b60405180910390fd5b600260008190555060008111610e57576040517f08c379a0000000000000000000000000000000000000000000000000000000008152600401610e4e90615376565b60405180910390fd5b601354811115610e9c576040517f08c379a0000000000000000000000000000000000000000000000000000000008152600401610e9390615376565b60405180910390fd5b3373ffffffffffffffffffffffffffffffffffffffff166009600083815260200190815260200160002060040160009054906101000a900473ffffffffffffffffffffffffffffffffffffffff1673ffffffffffffffffffffffffffffffffffffffff1614610f0a57600080fd5b600015156009600083815260200190815260200160002060040160149054906101000a900460ff16151514610f3e57600080fd5b60006009600083815260200190815260200160002090506110258160060160009054906101000a900460ff168260060160019054906101000a900460ff16836007018054610f8b906158e8565b80601f0160208091040260200160405190810160405280929190818152602001828054610fb7906158e8565b80156110045780601f10610fd957610100808354040283529160200191611004565b820191906000526020600020905b815481529060010190602001808311610fe757829003601f168201915b505050505084600801548560090160009054906101000a900460ff166131d3565b6014908051906020019061103a9291906148e7565b50607b73ffffffffffffffffffffffffffffffffffffffff166006600084815260200190815260200160002060009054906101000a900473ffffffffffffffffffffffffffffffffffffffff1673ffffffffffffffffffffffffffffffffffffffff16141561112557336006600084815260200190815260200160002060006101000a81548173ffffffffffffffffffffffffffffffffffffffff021916908373ffffffffffffffffffffffffffffffffffffffff16021790555060016009600084815260200190815260200160002060040160146101000a81548160ff0219169083151502179055505b600e6000838152602001908152602001600020546001826005015461114a9190615692565b14156113055760006001611212836007018054611166906158e8565b80601f0160208091040260200160405190810160405280929190818152602001828054611192906158e8565b80156111df5780601f106111b4576101008083540402835291602001916111df565b820191906000526020600020905b8154815290600101906020018083116111c257829003601f168201915b505050505084600801548560090160009054906101000a900460ff168660060160019054906101000a900460ff16613228565b60405161121f91906150d7565b908152602001604051809103902060006101000a81548160ff0219169083151502179055506000600560146040516112579190615177565b908152602001604051809103902060006101000a81548160ff02191690831515021790555060006004601460405161128f9190615177565b908152602001604051809103902060006101000a81548173ffffffffffffffffffffffffffffffffffffffff021916908373ffffffffffffffffffffffffffffffffffffffff1602179055506000600260146040516112ee9190615177565b908152602001604051809103902081905550611373565b600260146040516113169190615177565b908152602001604051809103902060008154809291906113359061594b565b919050555060016003601460405161134d9190615177565b908152602001604051809103902060006101000a81548160ff0219169083151502179055505b8060010160009054906101000a900473ffffffffffffffffffffffffffffffffffffffff1673ffffffffffffffffffffffffffffffffffffffff166323b872dd303384600201546040518463ffffffff1660e01b81526004016113d8939291906151c4565b600060405180830381600087803b1580156113f257600080fd5b505af1158015611406573d6000803e3d6000fd5b505050506001600f600084815260200190815260200160002060006101000a81548160ff02191690831515021790555050600160008190555050565b60026000541415611488576040517f08c379a000000000000000000000000000000000000000000000000000000000815260040161147f90615396565b60405180910390fd5b6002600081905550600087116114d3576040517f08c379a00000000000000000000000000000000000000000000000000000000081526004016114ca906153d6565b60405180910390fd5b60008211611516576040517f08c379a000000000000000000000000000000000000000000000000000000000815260040161150d90615316565b60405180910390fd5b601e82111561155a576040517f08c379a000000000000000000000000000000000000000000000000000000000815260040161155190615296565b60405180910390fd5b600186101561159e576040517f08c379a0000000000000000000000000000000000000000000000000000000008152600401611595906152b6565b60405180910390fd5b6000151560016115b085858589613228565b6040516115bd91906150d7565b908152602001604051809103902060009054906101000a900460ff1615151461161b576040517f08c379a000000000000000000000000000000000000000000000000000000000815260040161161290615416565b60405180910390fd5b60018061162a85858589613228565b60405161163791906150d7565b908152602001604051809103902060006101000a81548160ff02191690831515021790555061166985858585856131d3565b6014908051906020019061167e9291906148e7565b506001600560146040516116929190615177565b908152602001604051809103902060006101000a81548160ff02191690831515021790555033600460146040516116c99190615177565b908152602001604051809103902060006101000a81548173ffffffffffffffffffffffffffffffffffffffff021916908373ffffffffffffffffffffffffffffffffffffffff1602179055506000600360146040516117289190615177565b908152602001604051809103902060006101000a81548160ff0219169083151502179055506001861415611789576000601281905550601254600260146040516117729190615177565b9081526020016040518091039020819055506117c3565b6001866117969190615773565b601281905550601254600260146040516117b09190615177565b9081526020016040518091039020819055505b60016013546117d29190615692565b6013819055508873ffffffffffffffffffffffffffffffffffffffff166323b872dd33308b6040518463ffffffff1660e01b8152600401611815939291906151c4565b600060405180830381600087803b15801561182f57600080fd5b505af1158015611843573d6000803e3d6000fd5b5050505060405180610180016040528060135481526020018a73ffffffffffffffffffffffffffffffffffffffff1681526020018981526020018881526020013373ffffffffffffffffffffffffffffffffffffffff16815260200160001515815260200160125481526020018660078111156118e9577f4e487b7100000000000000000000000000000000000000000000000000000000600052602160045260246000fd5b8152602001856007811115611927577f4e487b7100000000000000000000000000000000000000000000000000000000600052602160045260246000fd5b8152602001848152602001838152602001826009811115611971577f4e487b7100000000000000000000000000000000000000000000000000000000600052602160045260246000fd5b8152506009600060135481526020019081526020016000206000820151816000015560208201518160010160006101000a81548173ffffffffffffffffffffffffffffffffffffffff021916908373ffffffffffffffffffffffffffffffffffffffff160217905550604082015181600201556060820151816003015560808201518160040160006101000a81548173ffffffffffffffffffffffffffffffffffffffff021916908373ffffffffffffffffffffffffffffffffffffffff16021790555060a08201518160040160146101000a81548160ff02191690831515021790555060c0820151816005015560e08201518160060160006101000a81548160ff02191690836007811115611ab0577f4e487b7100000000000000000000000000000000000000000000000000000000600052602160045260246000fd5b02179055506101008201518160060160016101000a81548160ff02191690836007811115611b07577f4e487b7100000000000000000000000000000000000000000000000000000000600052602160045260246000fd5b0217905550610120820151816007019080519060200190611b299291906148e7565b5061014082015181600801556101608201518160090160006101000a81548160ff02191690836009811115611b87577f4e487b7100000000000000000000000000000000000000000000000000000000600052602160045260246000fd5b021790555090505085600e60006013548152602001908152602001600020819055503373ffffffffffffffffffffffffffffffffffffffff168973ffffffffffffffffffffffffffffffffffffffff167f9ac7c2ddfc25f44f155aee0ef920ab1b3b3da80cbe6eef2a600db9fdd506f1996013548b8b601254611c098c613272565b611c128c6138b7565b8b8b611c1d8c613efc565b604051611c3299989796959493929190615557565b60405180910390a36001600081905550505050505050505050565b7f000000000000000000000000000000000000000000000000000000000000000081565b60135481565b6002818051602081018201805184825260208301602085012081835280955050505050506000915090505481565b7f000000000000000000000000000000000000000000000000000000000000000081565b600d602052816000526040600020602052806000526040600020600091509150505481565b60086020528160005260406000206020528060005260406000206000915091509054906101000a900460ff1681565b6005818051602081018201805184825260208301602085012081835280955050505050506000915054906101000a900460ff1681565b60026000541415611d99576040517f08c379a0000000000000000000000000000000000000000000000000000000008152600401611d9090615396565b60405180910390fd5b600260008190555060008611611de4576040517f08c379a0000000000000000000000000000000000000000000000000000000008152600401611ddb906153d6565b60405180910390fd5b60008211611e27576040517f08c379a0000000000000000000000000000000000000000000000000000000008152600401611e1e90615316565b60405180910390fd5b601e821115611e6b576040517f08c379a0000000000000000000000000000000000000000000000000000000008152600401611e6290615296565b60405180910390fd5b611e7885858585856131d3565b60149080519060200190611e8d9291906148e7565b506001151560056014604051611ea39190615177565b908152602001604051809103902060009054906101000a900460ff16151514611f01576040517f08c379a0000000000000000000000000000000000000000000000000000000008152600401611ef890615236565b60405180910390fd5b3373ffffffffffffffffffffffffffffffffffffffff1660046014604051611f299190615177565b908152602001604051809103902060009054906101000a900473ffffffffffffffffffffffffffffffffffffffff1673ffffffffffffffffffffffffffffffffffffffff1614611fae576040517f08c379a0000000000000000000000000000000000000000000000000000000008152600401611fa590615336565b60405180910390fd5b6001151560036014604051611fc39190615177565b908152602001604051809103902060009054906101000a900460ff16151514612021576040517f08c379a000000000000000000000000000000000000000000000000000000000815260040161201890615256565b60405180910390fd5b600260146040516120329190615177565b90815260200160405180910390205460128190555060006012541161208c576040517f08c379a000000000000000000000000000000000000000000000000000000000815260040161208390615356565b60405180910390fd5b600160125414156120ca576000601281905550601254600260146040516120b39190615177565b908152602001604051809103902081905550612106565b60016012546120d99190615773565b601281905550601254600260146040516120f39190615177565b9081526020016040518091039020819055505b60016013546121159190615692565b6013819055508773ffffffffffffffffffffffffffffffffffffffff166323b872dd33308a6040518463ffffffff1660e01b8152600401612158939291906151c4565b600060405180830381600087803b15801561217257600080fd5b505af1158015612186573d6000803e3d6000fd5b5050505060006003601460405161219d9190615177565b908152602001604051809103902060006101000a81548160ff02191690831515021790555060405180610180016040528060135481526020018973ffffffffffffffffffffffffffffffffffffffff1681526020018881526020018781526020013373ffffffffffffffffffffffffffffffffffffffff1681526020016000151581526020016012548152602001866007811115612264577f4e487b7100000000000000000000000000000000000000000000000000000000600052602160045260246000fd5b81526020018560078111156122a2577f4e487b7100000000000000000000000000000000000000000000000000000000600052602160045260246000fd5b81526020018481526020018381526020018260098111156122ec577f4e487b7100000000000000000000000000000000000000000000000000000000600052602160045260246000fd5b8152506009600060135481526020019081526020016000206000820151816000015560208201518160010160006101000a81548173ffffffffffffffffffffffffffffffffffffffff021916908373ffffffffffffffffffffffffffffffffffffffff160217905550604082015181600201556060820151816003015560808201518160040160006101000a81548173ffffffffffffffffffffffffffffffffffffffff021916908373ffffffffffffffffffffffffffffffffffffffff16021790555060a08201518160040160146101000a81548160ff02191690831515021790555060c0820151816005015560e08201518160060160006101000a81548160ff0219169083600781111561242b577f4e487b7100000000000000000000000000000000000000000000000000000000600052602160045260246000fd5b02179055506101008201518160060160016101000a81548160ff02191690836007811115612482577f4e487b7100000000000000000000000000000000000000000000000000000000600052602160045260246000fd5b02179055506101208201518160070190805190602001906124a49291906148e7565b5061014082015181600801556101608201518160090160006101000a81548160ff02191690836009811115612502577f4e487b7100000000000000000000000000000000000000000000000000000000600052602160045260246000fd5b02179055509050503373ffffffffffffffffffffffffffffffffffffffff168873ffffffffffffffffffffffffffffffffffffffff167f9ac7c2ddfc25f44f155aee0ef920ab1b3b3da80cbe6eef2a600db9fdd506f1996013548a8a60125461256a8c613272565b6125738c6138b7565b8b8b61257e8c613efc565b60405161259399989796959493929190615557565b60405180910390a360016000819055505050505050505050565b600b602052816000526040600020602052806000526040600020600091509150505481565b6003818051602081018201805184825260208301602085012081835280955050505050506000915054906101000a900460ff1681565b600c602052816000526040600020602052806000526040600020600091509150505481565b60066020528060005260406000206000915054906101000a900473ffffffffffffffffffffffffffffffffffffffff1681565b60096020528060005260406000206000915090508060000154908060010160009054906101000a900473ffffffffffffffffffffffffffffffffffffffff16908060020154908060030154908060040160009054906101000a900473ffffffffffffffffffffffffffffffffffffffff16908060040160149054906101000a900460ff16908060050154908060060160009054906101000a900460ff16908060060160019054906101000a900460ff1690806007018054612720906158e8565b80601f016020809104026020016040519081016040528092919081815260200182805461274c906158e8565b80156127995780601f1061276e57610100808354040283529160200191612799565b820191906000526020600020905b81548152906001019060200180831161277c57829003601f168201915b5050505050908060080154908060090160009054906101000a900460ff1690508c565b60026000541415612802576040517f08c379a00000000000000000000000000000000000000000000000000000000081526004016127f990615396565b60405180910390fd5b60026000819055506000811161284d576040517f08c379a000000000000000000000000000000000000000000000000000000000815260040161284490615376565b60405180910390fd5b601354811115612892576040517f08c379a000000000000000000000000000000000000000000000000000000000815260040161288990615376565b60405180910390fd5b600061289d82610d63565b9050803410156128e2576040517f08c379a00000000000000000000000000000000000000000000000000000000081526004016128d9906153b6565b60405180910390fd5b60006009600084815260200190815260200160002090508060040160149054906101000a900460ff161561294b576040517f08c379a0000000000000000000000000000000000000000000000000000000008152600401612942906152d6565b60405180910390fd5b8060040160009054906101000a900473ffffffffffffffffffffffffffffffffffffffff1673ffffffffffffffffffffffffffffffffffffffff166108fc82600301549081150290604051600060405180830381858888f193505050501580156129b9573d6000803e3d6000fd5b507f000000000000000000000000000000000000000000000000000000000000000073ffffffffffffffffffffffffffffffffffffffff166108fc826003015484612a049190615773565b9081150290604051600060405180830381858888f19350505050158015612a2f573d6000803e3d6000fd5b5060018160040160146101000a81548160ff0219169083151502179055508060010160009054906101000a900473ffffffffffffffffffffffffffffffffffffffff1673ffffffffffffffffffffffffffffffffffffffff166323b872dd303384600201546040518463ffffffff1660e01b8152600401612ab2939291906151c4565b600060405180830381600087803b158015612acc57600080fd5b505af1158015612ae0573d6000803e3d6000fd5b50505050607b73ffffffffffffffffffffffffffffffffffffffff166006600085815260200190815260200160002060009054906101000a900473ffffffffffffffffffffffffffffffffffffffff1673ffffffffffffffffffffffffffffffffffffffff1614612c525760016003612c1f8360060160009054906101000a900460ff168460060160019054906101000a900460ff16856007018054612b85906158e8565b80601f0160208091040260200160405190810160405280929190818152602001828054612bb1906158e8565b8015612bfe5780601f10612bd357610100808354040283529160200191612bfe565b820191906000526020600020905b815481529060010190602001808311612be157829003601f168201915b505050505086600801548760090160009054906101000a900460ff166131d3565b604051612c2c91906150d7565b908152602001604051809103902060006101000a81548160ff0219169083151502179055505b336006600085815260200190815260200160002060006101000a81548173ffffffffffffffffffffffffffffffffffffffff021916908373ffffffffffffffffffffffffffffffffffffffff16021790555060016007600085815260200190815260200160002060003373ffffffffffffffffffffffffffffffffffffffff1673ffffffffffffffffffffffffffffffffffffffff16815260200190815260200160002060006101000a81548160ff02191690831515021790555060016008600085815260200190815260200160002060008360040160009054906101000a900473ffffffffffffffffffffffffffffffffffffffff1673ffffffffffffffffffffffffffffffffffffffff1673ffffffffffffffffffffffffffffffffffffffff16815260200190815260200160002060006101000a81548160ff0219169083151502179055508060030154600a600085815260200190815260200160002060003373ffffffffffffffffffffffffffffffffffffffff1673ffffffffffffffffffffffffffffffffffffffff168152602001908152602001600020819055508060030154600c600085815260200190815260200160002060008360040160009054906101000a900473ffffffffffffffffffffffffffffffffffffffff1673ffffffffffffffffffffffffffffffffffffffff1673ffffffffffffffffffffffffffffffffffffffff1681526020019081526020016000208190555081600d600085815260200190815260200160002060008360040160009054906101000a900473ffffffffffffffffffffffffffffffffffffffff1673ffffffffffffffffffffffffffffffffffffffff1673ffffffffffffffffffffffffffffffffffffffff1681526020019081526020016000208190555081600b600085815260200190815260200160002060003373ffffffffffffffffffffffffffffffffffffffff1673ffffffffffffffffffffffffffffffffffffffff1681526020019081526020016000208190555081601060003373ffffffffffffffffffffffffffffffffffffffff1673ffffffffffffffffffffffffffffffffffffffff1681526020019081526020016000206000828254612f8d9190615692565b925050819055508060030154601160008360040160009054906101000a900473ffffffffffffffffffffffffffffffffffffffff1673ffffffffffffffffffffffffffffffffffffffff1673ffffffffffffffffffffffffffffffffffffffff168152602001908152602001600020600082825461300b9190615692565b925050819055503373ffffffffffffffffffffffffffffffffffffffff168160040160009054906101000a900473ffffffffffffffffffffffffffffffffffffffff1673ffffffffffffffffffffffffffffffffffffffff168260010160009054906101000a900473ffffffffffffffffffffffffffffffffffffffff1673ffffffffffffffffffffffffffffffffffffffff167fd78abc9e0d4dfe3f1e95dc2c5f8a6e6a3af57ab1174162e12eb01b661099ae00868560020154866003015487600501546040516130e09493929190615512565b60405180910390a45050600160008190555050565b60076020528160005260406000206020528060005260406000206000915091509054906101000a900460ff1681565b6004818051602081018201805184825260208301602085012081835280955050505050506000915054906101000a900473ffffffffffffffffffffffffffffffffffffffff1681565b600e6020528060005260406000206000915090505481565b6001818051602081018201805184825260208301602085012081835280955050505050506000915054906101000a900460ff1681565b60106020528060005260406000206000915090505481565b60606131de86613272565b6131e7866138b7565b856131f1866146ad565b6131fa86613efc565b60405160200161320e95949392919061512c565b604051602081830303815290604052905095945050505050565b6060613233826138b7565b8561323d866146ad565b61324686613efc565b60405160200161325994939291906150ee565b6040516020818303038152906040529050949350505050565b606060078260078111156132af577f4e487b7100000000000000000000000000000000000000000000000000000000600052602160045260246000fd5b11156132f0576040517f08c379a00000000000000000000000000000000000000000000000000000000081526004016132e790615276565b60405180910390fd5b816007811115613329577f4e487b7100000000000000000000000000000000000000000000000000000000600052602160045260246000fd5b60006007811115613363577f4e487b7100000000000000000000000000000000000000000000000000000000600052602160045260246000fd5b14156133a6576040518060400160405280600b81526020017f547269706c65204b696c6c00000000000000000000000000000000000000000081525090506138b2565b8160078111156133df577f4e487b7100000000000000000000000000000000000000000000000000000000600052602160045260246000fd5b60016007811115613419577f4e487b7100000000000000000000000000000000000000000000000000000000600052602160045260246000fd5b141561345c576040518060400160405280600b81526020017f517561647261204b696c6c00000000000000000000000000000000000000000081525090506138b2565b816007811115613495577f4e487b7100000000000000000000000000000000000000000000000000000000600052602160045260246000fd5b600260078111156134cf577f4e487b7100000000000000000000000000000000000000000000000000000000600052602160045260246000fd5b1415613512576040518060400160405280600a81526020017f50656e7461204b696c6c0000000000000000000000000000000000000000000081525090506138b2565b81600781111561354b577f4e487b7100000000000000000000000000000000000000000000000000000000600052602160045260246000fd5b60036007811115613585577f4e487b7100000000000000000000000000000000000000000000000000000000600052602160045260246000fd5b14156135c8576040518060400160405280600381526020017f317631000000000000000000000000000000000000000000000000000000000081525090506138b2565b816007811115613601577f4e487b7100000000000000000000000000000000000000000000000000000000600052602160045260246000fd5b6004600781111561363b577f4e487b7100000000000000000000000000000000000000000000000000000000600052602160045260246000fd5b141561367e576040518060400160405280600381526020017f317632000000000000000000000000000000000000000000000000000000000081525090506138b2565b8160078111156136b7577f4e487b7100000000000000000000000000000000000000000000000000000000600052602160045260246000fd5b600560078111156136f1577f4e487b7100000000000000000000000000000000000000000000000000000000600052602160045260246000fd5b1415613734576040518060400160405280600381526020017f317633000000000000000000000000000000000000000000000000000000000081525090506138b2565b81600781111561376d577f4e487b7100000000000000000000000000000000000000000000000000000000600052602160045260246000fd5b600660078111156137a7577f4e487b7100000000000000000000000000000000000000000000000000000000600052602160045260246000fd5b14156137ea576040518060400160405280600381526020017f317634000000000000000000000000000000000000000000000000000000000081525090506138b2565b816007811115613823577f4e487b7100000000000000000000000000000000000000000000000000000000600052602160045260246000fd5b60078081111561385c577f4e487b7100000000000000000000000000000000000000000000000000000000600052602160045260246000fd5b141561389f576040518060400160405280600381526020017f317635000000000000000000000000000000000000000000000000000000000081525090506138b2565b6040518060200160405280600081525090505b919050565b606060078260078111156138f4577f4e487b7100000000000000000000000000000000000000000000000000000000600052602160045260246000fd5b1115613935576040517f08c379a000000000000000000000000000000000000000000000000000000000815260040161392c906153f6565b60405180910390fd5b81600781111561396e577f4e487b7100000000000000000000000000000000000000000000000000000000600052602160045260246000fd5b600060078111156139a8577f4e487b7100000000000000000000000000000000000000000000000000000000600052602160045260246000fd5b14156139eb576040518060400160405280600581526020017f44757374320000000000000000000000000000000000000000000000000000008152509050613ef7565b816007811115613a24577f4e487b7100000000000000000000000000000000000000000000000000000000600052602160045260246000fd5b60016007811115613a5e577f4e487b7100000000000000000000000000000000000000000000000000000000600052602160045260246000fd5b1415613aa1576040518060400160405280600681526020017f4d697261676500000000000000000000000000000000000000000000000000008152509050613ef7565b816007811115613ada577f4e487b7100000000000000000000000000000000000000000000000000000000600052602160045260246000fd5b60026007811115613b14577f4e487b7100000000000000000000000000000000000000000000000000000000600052602160045260246000fd5b1415613b57576040518060400160405280600781526020017f496e6665726e6f000000000000000000000000000000000000000000000000008152509050613ef7565b816007811115613b90577f4e487b7100000000000000000000000000000000000000000000000000000000600052602160045260246000fd5b60036007811115613bca577f4e487b7100000000000000000000000000000000000000000000000000000000600052602160045260246000fd5b1415613c0d576040518060400160405280600481526020017f4e756b65000000000000000000000000000000000000000000000000000000008152509050613ef7565b816007811115613c46577f4e487b7100000000000000000000000000000000000000000000000000000000600052602160045260246000fd5b60046007811115613c80577f4e487b7100000000000000000000000000000000000000000000000000000000600052602160045260246000fd5b1415613cc3576040518060400160405280600881526020017f4f766572706173730000000000000000000000000000000000000000000000008152509050613ef7565b816007811115613cfc577f4e487b7100000000000000000000000000000000000000000000000000000000600052602160045260246000fd5b60056007811115613d36577f4e487b7100000000000000000000000000000000000000000000000000000000600052602160045260246000fd5b1415613d79576040518060400160405280600781526020017f416e6369656e74000000000000000000000000000000000000000000000000008152509050613ef7565b816007811115613db2577f4e487b7100000000000000000000000000000000000000000000000000000000600052602160045260246000fd5b60066007811115613dec577f4e487b7100000000000000000000000000000000000000000000000000000000600052602160045260246000fd5b1415613e2f576040518060400160405280600781526020017f5665727469676f000000000000000000000000000000000000000000000000008152509050613ef7565b816007811115613e68577f4e487b7100000000000000000000000000000000000000000000000000000000600052602160045260246000fd5b600780811115613ea1577f4e487b7100000000000000000000000000000000000000000000000000000000600052602160045260246000fd5b1415613ee4576040518060400160405280600581526020017f547261696e0000000000000000000000000000000000000000000000000000008152509050613ef7565b6040518060200160405280600081525090505b919050565b60606009826009811115613f39577f4e487b7100000000000000000000000000000000000000000000000000000000600052602160045260246000fd5b1115613f7a576040517f08c379a0000000000000000000000000000000000000000000000000000000008152600401613f71906152f6565b60405180910390fd5b816009811115613fb3577f4e487b7100000000000000000000000000000000000000000000000000000000600052602160045260246000fd5b60056009811115613fed577f4e487b7100000000000000000000000000000000000000000000000000000000600052602160045260246000fd5b1415614030576040518060400160405280601381526020017f436f756e7465722d737472696b65204e6f2e310000000000000000000000000081525090506146a8565b816009811115614069577f4e487b7100000000000000000000000000000000000000000000000000000000600052602160045260246000fd5b600660098111156140a3577f4e487b7100000000000000000000000000000000000000000000000000000000600052602160045260246000fd5b14156140e6576040518060400160405280601381526020017f436f756e7465722d737472696b65204e6f2e320000000000000000000000000081525090506146a8565b81600981111561411f577f4e487b7100000000000000000000000000000000000000000000000000000000600052602160045260246000fd5b60076009811115614159577f4e487b7100000000000000000000000000000000000000000000000000000000600052602160045260246000fd5b141561419c576040518060400160405280601381526020017f436f756e7465722d737472696b65204e6f2e330000000000000000000000000081525090506146a8565b8160098111156141d5577f4e487b7100000000000000000000000000000000000000000000000000000000600052602160045260246000fd5b6008600981111561420f577f4e487b7100000000000000000000000000000000000000000000000000000000600052602160045260246000fd5b1415614252576040518060400160405280601381526020017f436f756e7465722d737472696b65204e6f2e340000000000000000000000000081525090506146a8565b81600981111561428b577f4e487b7100000000000000000000000000000000000000000000000000000000600052602160045260246000fd5b6009808111156142c4577f4e487b7100000000000000000000000000000000000000000000000000000000600052602160045260246000fd5b1415614307576040518060400160405280601381526020017f436f756e7465722d737472696b65204e6f2e350000000000000000000000000081525090506146a8565b816009811115614340577f4e487b7100000000000000000000000000000000000000000000000000000000600052602160045260246000fd5b6000600981111561437a577f4e487b7100000000000000000000000000000000000000000000000000000000600052602160045260246000fd5b14156143bd576040518060400160405280600e81526020017f546572726f72697374204e6f2e3100000000000000000000000000000000000081525090506146a8565b8160098111156143f6577f4e487b7100000000000000000000000000000000000000000000000000000000600052602160045260246000fd5b60016009811115614430577f4e487b7100000000000000000000000000000000000000000000000000000000600052602160045260246000fd5b1415614473576040518060400160405280600e81526020017f546572726f72697374204e6f2e3200000000000000000000000000000000000081525090506146a8565b8160098111156144ac577f4e487b7100000000000000000000000000000000000000000000000000000000600052602160045260246000fd5b600260098111156144e6577f4e487b7100000000000000000000000000000000000000000000000000000000600052602160045260246000fd5b1415614529576040518060400160405280600e81526020017f546572726f72697374204e6f2e3300000000000000000000000000000000000081525090506146a8565b816009811115614562577f4e487b7100000000000000000000000000000000000000000000000000000000600052602160045260246000fd5b6003600981111561459c577f4e487b7100000000000000000000000000000000000000000000000000000000600052602160045260246000fd5b14156145df576040518060400160405280600e81526020017f546572726f72697374204e6f2e3400000000000000000000000000000000000081525090506146a8565b816009811115614618577f4e487b7100000000000000000000000000000000000000000000000000000000600052602160045260246000fd5b60046009811115614652577f4e487b7100000000000000000000000000000000000000000000000000000000600052602160045260246000fd5b1415614695576040518060400160405280600e81526020017f546572726f72697374204e6f2e3500000000000000000000000000000000000081525090506146a8565b6040518060200160405280600081525090505b919050565b606060008214156146f5576040518060400160405280600181526020017f30000000000000000000000000000000000000000000000000000000000000008152509050614855565b600082905060005b600082146147275780806147109061594b565b915050600a8261472091906156e8565b91506146fd565b60008167ffffffffffffffff811115614769577f4e487b7100000000000000000000000000000000000000000000000000000000600052604160045260246000fd5b6040519080825280601f01601f19166020018201604052801561479b5781602001600182028036833780820191505090505b5090505b6000851461484e576001826147b49190615773565b9150600a856147c39190615994565b60306147cf9190615692565b60f81b81838151811061480b577f4e487b7100000000000000000000000000000000000000000000000000000000600052603260045260246000fd5b60200101907effffffffffffffffffffffffffffffffffffffffffffffffffffffffffffff1916908160001a905350600a8561484791906156e8565b945061479f565b8093505050505b919050565b828054614866906158e8565b90600052602060002090601f01602090048101928261488857600085556148d6565b82601f1061489957805485556148d6565b828001600101855582156148d657600052602060002091601f016020900482015b828111156148d55782548255916001019190600101906148ba565b5b5090506148e3919061496d565b5090565b8280546148f3906158e8565b90600052602060002090601f016020900481019282614915576000855561495c565b82601f1061492e57805160ff191683800117855561495c565b8280016001018555821561495c579182015b8281111561495b578251825591602001919060010190614940565b5b509050614969919061496d565b5090565b5b8082111561498657600081600090555060010161496e565b5090565b600061499d61499884615625565b615600565b9050828152602081018484840111156149b557600080fd5b6149c08482856158a6565b509392505050565b6000813590506149d781615f0c565b92915050565b6000813590506149ec81615f23565b92915050565b600081359050614a0181615f3a565b92915050565b600081359050614a1681615f4a565b92915050565b600081359050614a2b81615f5a565b92915050565b600082601f830112614a4257600080fd5b8135614a5284826020860161498a565b91505092915050565b600081359050614a6a81615f6a565b92915050565b600060208284031215614a8257600080fd5b6000614a90848285016149c8565b91505092915050565b600080600080600080600080610100898b031215614ab657600080fd5b6000614ac48b828c016149dd565b9850506020614ad58b828c01614a5b565b9750506040614ae68b828c01614a5b565b9650506060614af78b828c016149f2565b9550506080614b088b828c01614a07565b94505060a089013567ffffffffffffffff811115614b2557600080fd5b614b318b828c01614a31565b93505060c0614b428b828c01614a5b565b92505060e0614b538b828c01614a1c565b9150509295985092959890939650565b60008060008060008060008060006101208a8c031215614b8257600080fd5b6000614b908c828d016149dd565b9950506020614ba18c828d01614a5b565b9850506040614bb28c828d01614a5b565b9750506060614bc38c828d01614a5b565b9650506080614bd48c828d016149f2565b95505060a0614be58c828d01614a07565b94505060c08a013567ffffffffffffffff811115614c0257600080fd5b614c0e8c828d01614a31565b93505060e0614c1f8c828d01614a5b565b925050610100614c318c828d01614a1c565b9150509295985092959850929598565b600060208284031215614c5357600080fd5b600082013567ffffffffffffffff811115614c6d57600080fd5b614c7984828501614a31565b91505092915050565b600060208284031215614c9457600080fd5b6000614ca284828501614a5b565b91505092915050565b60008060408385031215614cbe57600080fd5b6000614ccc85828601614a5b565b9250506020614cdd858286016149c8565b9150509250929050565b60008060408385031215614cfa57600080fd5b6000614d0885828601614a5b565b9250506020614d1985828601614a5b565b9150509250929050565b614d2c816157b9565b82525050565b614d3b816157a7565b82525050565b614d4a816157cb565b82525050565b614d598161584c565b82525050565b614d6881615870565b82525050565b614d7781615882565b82525050565b614d8681615894565b82525050565b6000614d978261566b565b614da18185615676565b9350614db18185602086016158b5565b614dba81615ab0565b840191505092915050565b6000614dd08261566b565b614dda8185615687565b9350614dea8185602086016158b5565b80840191505092915050565b60008154614e03816158e8565b614e0d8186615687565b94506001821660008114614e285760018114614e3957614e6c565b60ff19831686528186019350614e6c565b614e4285615656565b60005b83811015614e6457815481890152600182019150602081019050614e45565b838801955050505b50505092915050565b6000614e82602883615676565b9150614e8d82615ac1565b604082019050919050565b6000614ea5602a83615676565b9150614eb082615b10565b604082019050919050565b6000614ec8602083615676565b9150614ed382615b5f565b602082019050919050565b6000614eeb602683615676565b9150614ef682615b88565b604082019050919050565b6000614f0e602883615676565b9150614f1982615bd7565b604082019050919050565b6000614f31602a83615676565b9150614f3c82615c26565b604082019050919050565b6000614f54601c83615676565b9150614f5f82615c75565b602082019050919050565b6000614f77602183615676565b9150614f8282615c9e565b604082019050919050565b6000614f9a602383615676565b9150614fa582615ced565b604082019050919050565b6000614fbd601e83615676565b9150614fc882615d3c565b602082019050919050565b6000614fe0601f83615676565b9150614feb82615d65565b602082019050919050565b6000615003601d83615676565b915061500e82615d8e565b602082019050919050565b6000615026601f83615676565b915061503182615db7565b602082019050919050565b6000615049602583615676565b915061505482615de0565b604082019050919050565b600061506c601c83615676565b915061507782615e2f565b602082019050919050565b600061508f601783615676565b915061509a82615e58565b602082019050919050565b60006150b2602683615676565b91506150bd82615e81565b604082019050919050565b6150d181615842565b82525050565b60006150e38284614dc5565b915081905092915050565b60006150fa8287614dc5565b91506151068286614dc5565b91506151128285614dc5565b915061511e8284614dc5565b915081905095945050505050565b60006151388288614dc5565b91506151448287614dc5565b91506151508286614dc5565b915061515c8285614dc5565b91506151688284614dc5565b91508190509695505050505050565b60006151838284614df6565b915081905092915050565b60006020820190506151a36000830184614d32565b92915050565b60006020820190506151be6000830184614d23565b92915050565b60006060820190506151d96000830186614d32565b6151e66020830185614d32565b6151f360408301846150c8565b949350505050565b60006020820190506152106000830184614d41565b92915050565b6000602082019050818103600083015261522f81614e75565b9050919050565b6000602082019050818103600083015261524f81614e98565b9050919050565b6000602082019050818103600083015261526f81614ebb565b9050919050565b6000602082019050818103600083015261528f81614ede565b9050919050565b600060208201905081810360008301526152af81614f01565b9050919050565b600060208201905081810360008301526152cf81614f24565b9050919050565b600060208201905081810360008301526152ef81614f47565b9050919050565b6000602082019050818103600083015261530f81614f6a565b9050919050565b6000602082019050818103600083015261532f81614f8d565b9050919050565b6000602082019050818103600083015261534f81614fb0565b9050919050565b6000602082019050818103600083015261536f81614fd3565b9050919050565b6000602082019050818103600083015261538f81614ff6565b9050919050565b600060208201905081810360008301526153af81615019565b9050919050565b600060208201905081810360008301526153cf8161503c565b9050919050565b600060208201905081810360008301526153ef8161505f565b9050919050565b6000602082019050818103600083015261540f81615082565b9050919050565b6000602082019050818103600083015261542f816150a5565b9050919050565b600060208201905061544b60008301846150c8565b92915050565b600061018082019050615467600083018f6150c8565b615474602083018e614d50565b615481604083018d6150c8565b61548e606083018c6150c8565b61549b608083018b614d23565b6154a860a083018a614d41565b6154b560c08301896150c8565b6154c260e0830188614d5f565b6154d0610100830187614d6e565b8181036101208301526154e38186614d8c565b90506154f36101408301856150c8565b615501610160830184614d7d565b9d9c50505050505050505050505050565b600060808201905061552760008301876150c8565b61553460208301866150c8565b61554160408301856150c8565b61554e60608301846150c8565b95945050505050565b60006101208201905061556d600083018c6150c8565b61557a602083018b6150c8565b615587604083018a6150c8565b61559460608301896150c8565b81810360808301526155a68188614d8c565b905081810360a08301526155ba8187614d8c565b905081810360c08301526155ce8186614d8c565b90506155dd60e08301856150c8565b8181036101008301526155f08184614d8c565b90509a9950505050505050505050565b600061560a61561b565b9050615616828261591a565b919050565b6000604051905090565b600067ffffffffffffffff8211156156405761563f615a81565b5b61564982615ab0565b9050602081019050919050565b60008190508160005260206000209050919050565b600081519050919050565b600082825260208201905092915050565b600081905092915050565b600061569d82615842565b91506156a883615842565b9250827fffffffffffffffffffffffffffffffffffffffffffffffffffffffffffffffff038211156156dd576156dc6159c5565b5b828201905092915050565b60006156f382615842565b91506156fe83615842565b92508261570e5761570d6159f4565b5b828204905092915050565b600061572482615842565b915061572f83615842565b9250817fffffffffffffffffffffffffffffffffffffffffffffffffffffffffffffffff0483118215151615615768576157676159c5565b5b828202905092915050565b600061577e82615842565b915061578983615842565b92508282101561579c5761579b6159c5565b5b828203905092915050565b60006157b282615822565b9050919050565b60006157c482615822565b9050919050565b60008115159050919050565b60006157e2826157a7565b9050919050565b60008190506157f782615ed0565b919050565b600081905061580a82615ee4565b919050565b600081905061581d82615ef8565b919050565b600073ffffffffffffffffffffffffffffffffffffffff82169050919050565b6000819050919050565b60006158578261585e565b9050919050565b600061586982615822565b9050919050565b600061587b826157e9565b9050919050565b600061588d826157fc565b9050919050565b600061589f8261580f565b9050919050565b82818337600083830152505050565b60005b838110156158d35780820151818401526020810190506158b8565b838111156158e2576000848401525b50505050565b6000600282049050600182168061590057607f821691505b6020821081141561591457615913615a52565b5b50919050565b61592382615ab0565b810181811067ffffffffffffffff8211171561594257615941615a81565b5b80604052505050565b600061595682615842565b91507fffffffffffffffffffffffffffffffffffffffffffffffffffffffffffffffff821415615989576159886159c5565b5b600182019050919050565b600061599f82615842565b91506159aa83615842565b9250826159ba576159b96159f4565b5b828206905092915050565b7f4e487b7100000000000000000000000000000000000000000000000000000000600052601160045260246000fd5b7f4e487b7100000000000000000000000000000000000000000000000000000000600052601260045260246000fd5b7f4e487b7100000000000000000000000000000000000000000000000000000000600052602160045260246000fd5b7f4e487b7100000000000000000000000000000000000000000000000000000000600052602260045260246000fd5b7f4e487b7100000000000000000000000000000000000000000000000000000000600052604160045260246000fd5b6000601f19601f8301169050919050565b7f54686520686967686c69676874206973206e6f74206f776e656420627920746860008201527f652073656e646572000000000000000000000000000000000000000000000000602082015250565b7f54686520686967686c6967687420686173206e6f74206265656e20637265617460008201527f6564206265666f72652e00000000000000000000000000000000000000000000602082015250565b7f54686520686967686c69676874206973206265696e6720736f6c64206e6f772e600082015250565b7f54686520636c617373206f6620686967686c6967687420646f6573206e6f742060008201527f65786973742e0000000000000000000000000000000000000000000000000000602082015250565b7f526f756e64206e756d626572206d757374206265206c657373206f722065717560008201527f616c20746f203330000000000000000000000000000000000000000000000000602082015250565b7f54686520686967686c696768742073686f756c6420626520736f6c642061742060008201527f6c65617374206f6e636500000000000000000000000000000000000000000000602082015250565b7f54686520686967686c6967687420686173206265656e20736f6c642e00000000600082015250565b7f54686520706c61796572206e756d62657220646f6573206e6f7420657869737460008201527f2e00000000000000000000000000000000000000000000000000000000000000602082015250565b7f526f756e64206e756d626572206d75737420626520677265617465722074686160008201527f6e20300000000000000000000000000000000000000000000000000000000000602082015250565b7f4974206973206e6f74206f776e6564206279207468652073656e6465722e0000600082015250565b7f54686520686967686c696768742063616e6e6f74206265207265736f6c642e00600082015250565b7f54686520686967686c6967687420646f6573206e6f742065786973742e000000600082015250565b7f5265656e7472616e637947756172643a207265656e7472616e742063616c6c00600082015250565b7f54686520627579657220646f6573206e6f74206861766520656e6f756768206d60008201527f6f6e65792e000000000000000000000000000000000000000000000000000000602082015250565b7f5072696365206d7573742062652067726561746572207468616e203000000000600082015250565b7f546865206d617020646f6573206e6f742065786973742e000000000000000000600082015250565b7f54686520686967686c6967687420686173206265656e2063726561746564206260008201527f65666f72652e0000000000000000000000000000000000000000000000000000602082015250565b60088110615ee157615ee0615a23565b5b50565b60088110615ef557615ef4615a23565b5b50565b600a8110615f0957615f08615a23565b5b50565b615f15816157a7565b8114615f2057600080fd5b50565b615f2c816157d7565b8114615f3757600080fd5b50565b60088110615f4757600080fd5b50565b60088110615f5757600080fd5b50565b600a8110615f6757600080fd5b50565b615f7381615842565b8114615f7e57600080fd5b5056fea2646970667358221220c0be494fd5c6d2edf984aca091645778d5ddef1e2c6a43cca895b9dce8891c9764736f6c63430008040033",
  "linkReferences": {},
  "deployedLinkReferences": {}
}